:100000000C94A6040C94CE040C94CE040C94CE0450
:100010000C94CE040C94CE040C94CE040C94CE0418
:100020000C94CE040C94CE040C94EC130C945E143B
:100030000C94CE040C94CE040C94CE040C94CE04F8
:100040000C94CE040C9452080C94CE040C94CE0460
:100050000C94CE040C94CE040C94CE040C94400763
:100060000C94CE040C94CE040C94CE040C94CE04C8
:100070000C94CE040C94CE040C94CE040C94CE04B8
:100080000C94F0080C94CE040C94CE040C94CE0482
:100090000C94CE040C94CE040C94CE040C94CE0498
:1000A0000C94CE040C94CE040C94CE04FA05FD05F9
:1000B000EC05F005F4051E061E061E0601060506E3
:1000C00009060F0613061E06190695069A069F06D0
:1000D000A906B306FD06FD06FD06BD06C706D10648
:1000E000DB06E806FD06F006F0F89C8E8783878E17
:1000F0009CF8F00000FEFF0303030303070EFCF867
:100100000000FEFF0303030303070EFCF80000FFDB
:10011000FF00000000000000FFFF0000FEFF8383DF
:10012000838383C7EE7C380000F8FC0E07030303CB
:10013000070EFCF800003F7FE0C08080C0E07F3FFA
:10014000FFFF01010101010101FFFF0000FFFF0CA2
:100150000C0C0C1C3E77E3C100007FFFC0C0C0C088
:10016000C0E0703F1F00001F3F70E0C0C0C0E070E3
:100170003F1F00007FFFC1C1C1C1C1E3773E1C002A
:10018000001F3F70E0C0C0C0E0703F1F00000000D3
:100190000001FFFF01000000000000002400270014
:1001A0002A002D003000D5F08D14A1C881CFD9F1DF
:1001B000AF20001402130212021502070208020403
:1001C000010C01060100F8FC24243C18003D3D0010
:1001D00000183C24242400183C24243C1800041C4F
:1001E0003820381C0410382A2A2E3C20183C24249D
:1001F000273F20001C3E2A2A2E0C00043C3E02020F
:10020000242E2A2A3A1206060706060105060605C6
:10021000040704050205000500050305060503069D
:10022000050205060306030603060306030600038C
:10023000060300000603060006050703070506007F
:10024000050300060600070006060006060700056F
:1002500003000606050700060606063C3E1F0F0FB4
:100260001F3E3C3F213F003F003D252725253F07FE
:10027000043F27253D3F253D01013F3F253F2725E1
:100280003F05020547414D45204F564552000000AD
:100290000000003E5B4F5B3E3E6B4F6B3E1C3E7C66
:1002A0003E1C183C7E3C181C577D571C1C5E7F5E14
:1002B0001C00183C1800FFE7C3E7FF0018241800D3
:1002C000FFE7DBE7FF30483A060E2629792926406A
:1002D0007F050507407F05253F5A3CE73C5A7F3E96
:1002E0001C1C08081C1C3E7F14227F22145F5F0028
:1002F0005F5F06097F017F006689956A60606060C4
:100300006094A2FFA29408047E040810207E2010AE
:1003100008082A1C08081C2A08081E101010100CB7
:100320001E0C1E0C30383E3830060E3E0E06000005
:1003300000000000005F00000007000700147F14A9
:100340007F14242A7F2A1223130864623649562018
:10035000500008070300001C2241000041221C003D
:100360002A1C7F1C2A08083E0808008070300008FC
:1003700008080808000060600020100804023E51D0
:1003800049453E00427F4000724949494621414962
:100390004D331814127F1027454545393C4A4949C9
:1003A0003141211109073649494936464949291E33
:1003B0000000140000004034000000081422411422
:1003C00014141414004122140802015909063E4174
:1003D0005D594E7C1211127C7F494949363E41419C
:1003E00041227F4141413E7F494949417F090909F5
:1003F000013E414151737F0808087F00417F410061
:100400002040413F017F081422417F404040407F0F
:10041000021C027F7F0408107F3E4141413E7F095C
:100420000909063E4151215E7F091929462649499D
:10043000493203017F01033F4040403F1F204020DD
:100440001F3F4038403F63140814630304780403DB
:100450006159494D43007F41414102040810200089
:100460004141417F040201020440404040400003FA
:1004700007080020545478407F28444438384444C6
:100480004428384444287F385454541800087E09BE
:100490000218A4A49C787F0804047800447D4000DE
:1004A0002040403D007F1028440000417F40007CF8
:1004B000047804787C080404783844444438FC18F0
:1004C00024241818242418FC7C08040408485454D4
:1004D000542404043F44243C4040207C1C20402001
:1004E0001C3C4030403C44281028444C9090907C68
:1004F0004464544C4400083641000000770000007A
:100500004136080002010204023C2623263C1EA1BB
:10051000A161123A4040207A38545455592155551A
:1005200079412154547841215554784020545579CB
:10053000400C1E527212395555555939545454595C
:1005400039555454580000457C410002457D420015
:1005500001457C40F0292429F0F0282528F07C541E
:100560005545002054547C547C0A097F493249493E
:1005700049323248484832324A4848303A414121AB
:100580007A3A42402078009DA0A07D394444443905
:100590003D4040403D3C24FF2424487E4943662B97
:1005A0002FFC2F2BFF0929F620C0887E0903205439
:1005B0005479410000447D413048484A3238404037
:1005C000227A007A0A0A727D0D19317D2629292F97
:1005D00028262929292630484D40203808080808AF
:1005E00008080808382F10C8ACBA2F102834FA00B1
:1005F000007B000008142A142222142A14089500F3
:10060000220095AA005500AAAA55AA55AA000000E2
:10061000FF00101010FF00141414FF001010FF0052
:10062000FF1010F010F0141414FC001414F700FF65
:100630000000FF00FF1414F404FC141417101F1022
:10064000101F101F1414141F00101010F0000000D1
:10065000001F101010101F10101010F010000000DC
:10066000FF101010101010101010FF10000000FFED
:10067000140000FF00FF00001F10170000FC04F42E
:1006800014141710171414F404F40000FF00F714E6
:10069000141414141414F700F7141414171410106D
:1006A0001F101F141414F4141010F010F000001F89
:1006B000101F0000001F14000000FC140000F010C8
:1006C000F01010FF10FF141414FF141010101F006E
:1006D000000000F010FFFFFFFFFFF0F0F0F0F0FF70
:1006E000FFFF0000000000FFFF0F0F0F0F0F384447
:1006F0004438447C2A2A3E147E02020606027E0208
:100700007E0263554941633844443C04407E201EC8
:100710002006027E020299A5E7A5991C2A492A1CF7
:100720004C7201724C304A4D4D303048784830BCE4
:10073000625A463D3E494949007E0101017E2A2A0E
:100740002A2A2A44445F444440514A444040444A8F
:1007500051400000FF0103E080FF000008086B6BC0
:10076000083612362436060F090F06000018180046
:1007700000001010003040FF0101001F01011E00A9
:10078000191D1712003C3C3C3C0000000000060113
:100790001501260137014A015D01720188019F019F
:1007A000B801D201EE010B022A024B026E02930243
:1007B000BA02E40210033F037003A403DC0317042E
:1007C00055049704DD0427057505C80520067D0638
:1007D000E0064907B8072D08A9082D09B9094D0AEF
:1007E000EA0A900B400CFA0CC00D910E6F0F5A10D4
:1007F00053115B1272139A14D41520178018F5192F
:10080000801B231DDE1EB420A622B524E426342935
:10081000A72B402E0031EA330037453ABC3D6841F2
:100820004C456B49C84D68524F57805C00621011AF
:100830001213151617181A1C1D1F21232527292CE2
:100840002E3134373A3E4145494E52575C62686E0C
:10085000757B838B939CA5AFB9C4D0DCE9F700000E
:10086000000200090F0000030401000C000000005A
:10087000000000000000000000000000000408026A
:100880000110408040102040804080080204018018
:100890004020100201108010204040200000000085
:1008A000250028002B002E0031000404040404035A
:1008B0000405020202020403020202020606060600
:1008C0000606040402020204040301080B000202EB
:1008D00002010009040000010202000005240010CA
:1008E0000105240101010424020605240600010774
:1008F00005810310004009040100020A00000007FE
:1009000005020240000007058302400000040309BD
:100910000441726475696E6F204C4C4300417264EF
:1009200075626F7900120100020000004041233619
:100930008000010102030112010002EF02014041A7
:10094000233680000101020301009B2011241FBEF9
:10095000CFEFDAE0DEBFCDBF27E0A2E4B2E001C016
:100960001D92AF36B207E1F712E0A0E0B1E0E8EF88
:10097000F2E402C005900D92A234B107D9F714E059
:10098000C6EAD4E004C02197FE010E941021C53AB6
:10099000D107C9F70E949B160C947A210C94000091
:1009A000CF92DF92EF92FF920F931F93CF93DF933B
:1009B0006C017A018B01C0E0D0E0CE15DF0589F033
:1009C000D8016D918D01D601ED91FC910190F081DE
:1009D000E02DC6010995892B11F47E0102C02196F4
:1009E000ECCFC701DF91CF911F910F91FF90EF9056
:1009F000DF90CF9008953FB7F8948091890290914D
:100A00008A02A0918B02B0918C0226B5A89B05C0EA
:100A10002F3F19F00196A11DB11D3FBFBA2FA92F7D
:100A2000982F8827820F911DA11DB11DBC01CD01FA
:100A300042E0660F771F881F991F4A95D1F70895E6
:100A4000FC01862F96EF960F97FD0BC0A92F092E5C
:100A5000000CBB0BA555BD4F2C912111892F9A502D
:100A6000F3CF15826AE00E94CE202091E2023091FD
:100A7000E30247E0949F200D311D11242F5F3F4F6B
:100A80003183208324E030E0A901481B5109CA01C9
:100A900026E0289FA001299F500D11242091E402F7
:100AA0003091E502240F351F2A5F3F4F33832283A5
:100AB0000895FC012091E80230E0C901CC9662E380
:100AC00070E00E94FC20BC01DC01A555BD4F8C915B
:100AD000882319F0CF010C94200508956091E80255
:100AE0000C9420050E941D21CF92DF92EF920F936C
:100AF0001F93CF93DF93EC016B01142F26E043E0AB
:100B00000E944511812F6AE00E94CE20492F50E0BB
:100B1000CA01880F991F480F591F4D595D4FEE2488
:100B2000E39405E023E0B601CE010E94DB0FDF91E4
:100B3000CF911F910F91EF90DF90CF900895EF929A
:100B4000FF920F931F93CF93DF937C01C091980284
:100B5000CE5F0091EA0210E003500C2E000CDD0B7A
:100B60002296602F610F062E000C770BCE010E949B
:100B7000811187FF0AC01650123E99F7DF91CF917D
:100B80001F910F91FF90EF900895682FC701DF919B
:100B9000CF911F910F91FF90EF900C942005362F6D
:100BA00090E0FC01E25AF74F4491FC01E358F74F03
:100BB0002491FC01E655F74F8491882309F451C034
:100BC0004423E1F150E0FA013197EF30F105B0F53F
:100BD000EA5AFF4F0C941021909180009F7707C034
:100BE000909180009F7D03C090918000977F9093AB
:100BF000800024C094B59F7702C094B59F7D94BDBA
:100C00001DC0909190009F7707C0909190009F7DAC
:100C100003C090919000977F909390000FC09091A7
:100C2000C0009F7703C09091C0009F7D9093C0004B
:100C300005C09091C200977F9093C200E82FF0E02A
:100C4000EE0FFF1FE456F74FA591B4918FB7F894BC
:100C5000EC91311103C020952E2301C02E2B2C9333
:100C60008FBF0895CF93DF9390E0FC01E358F74FD7
:100C70002491FC01E655F74F8491882361F190E0BF
:100C8000880F991FFC01E856FE4FC591D491FC01D5
:100C9000E456F74FA591B491611109C09FB7F8943C
:100CA0008881209582238883EC912E230BC06230AB
:100CB00061F49FB7F8943881822F809583238883CD
:100CC000EC912E2B2C939FBF06C08FB7F894E88130
:100CD0002E2B28838FBFDF91CF9108951F93CF9341
:100CE000DF93182FEB0161E00E943206209711F488
:100CF00060E004C0CF3FD10539F461E0812FDF917E
:100D0000CF911F910C94CF05E12FF0E0E25AF74FFD
:100D1000E4914E2F50E0FA013197EF30F10508F0E1
:100D20006CC0EB59FF4F0C94102184B5806884BDD2
:100D3000C7BD68C084B5806284BDC8BD63C08091F2
:100D40008000806880938000D0938900C0938800E1
:100D500059C080918000806280938000D0938B0086
:100D6000C0938A004FC0809180008860809380008B
:100D7000D0938D00C0938C0045C080919000806816
:100D800080939000D0939900C09398003BC08091CD
:100D90009000806280939000D0939B00C0939A0053
:100DA00031C080919000886080939000D0939D0026
:100DB000C0939C0027C08091C00080688093C000D1
:100DC0008091C0008F7B8093C000C093CF001AC079
:100DD0008091C00080628093C000C093D00012C098
:100DE0008091C20088608093C2008091C2008B7F96
:100DF0008093C200C093D20005C0C038D1050CF06A
:100E00007CCF76CFDF91CF911F9108958F929F92E3
:100E1000AF92BF92CF92DF92EF92FF926B017C0173
:100E20000E94FB044B015C01C114D104E104F104F4
:100E3000F1F00E94FB04DC01CB0188199909AA0991
:100E4000BB09883E9340A105B10570F321E0C21AA9
:100E5000D108E108F10888EE880E83E0981EA11CF5
:100E6000B11CC114D104E104F10419F7DDCFFF90E6
:100E7000EF90DF90CF90BF90AF909F908F900895AC
:100E80001F920F920FB60F9211242F933F938F93BF
:100E90009F93AF93BF938091430290914402A0919E
:100EA0004502B09146023091880223E0230F2D378E
:100EB00020F40196A11DB11D05C026E8230F02965E
:100EC000A11DB11D20938802809343029093440298
:100ED000A0934502B09346028091890290918A02C4
:100EE000A0918B02B0918C020196A11DB11D80933F
:100EF000890290938A02A0938B02B0938C02BF91D7
:100F0000AF919F918F913F912F910F900FBE0F90B6
:100F10001F9018958FB12CB193B130E0209530958A
:100F200020743327A90123E0559547952A95E1F7C9
:100F3000292F30E02095309520713327359527955E
:100F400035952795242B8095807F822B08950F93CC
:100F50001F93CF93DF93D82F8B01FB01C081CC234C
:100F600021F00E948A078D2369F0F801C081C11128
:100F70000CC00E948A078D238D1307C081E0F80101
:100F8000808304C0F801108201C0C0E08C2FDF9183
:100F9000CF911F910F910895FC0121912EBD9C5F6F
:100FA00021910DB407FEFDCF2EBDE817F907C1F75B
:100FB0000DB407FEFDCF0895CF92DF92EF92FF921E
:100FC0000F931F93CF93E82FF0E0E753F74FC491AF
:100FD000E62FF0E0603330F4E25DF74FE4910E2F3E
:100FE00010E006C0EE0FFF1FE25DF84F059114916F
:100FF0006801E12CF12C60E074E284EF90E0A7013D
:1010000096010E942A21BA01A901415051096109A2
:1010100071094115510581E06807710580F060E9AB
:1010200070ED83E090E0A70196010E942A21BA01A9
:10103000A901415051096109710983E001C081E0B2
:10104000C130C9F0C33031F590919100987F892B60
:1010500080939100509399004093980010938702D9
:101060000093860281E08093850280917100826006
:10107000809371000FC090918100987F892B80939D
:101080008100509389004093880080916F008260B6
:1010900080936F00CF911F910F91FF90EF90DF90A1
:1010A000CF9008951F920F920FB60F9211242F9395
:1010B0003F938F939F93AF93BF93EF93FF93809151
:1010C0007E02882309F44DC080917A0290917B02C0
:1010D000A0917C02B0917D02892B8A2B8B2B51F140
:1010E00080919402E0919502F09196029081892777
:1010F000808380917A0290917B02A0917C02B091D2
:101100007D02181619061A061B06A4F580917A02AC
:1011100090917B02A0917C02B0917D020197A10980
:10112000B10980937A0290937B02A0937C02B093E2
:101130007D0220C010927E0280916F008D7F80938F
:101140006F0090919402E0919502F0919602808157
:10115000282F30E0892F90E080959095822393236B
:1011600008C080919402E0919502F09196029081DE
:1011700089278083FF91EF91BF91AF919F918F91CC
:101180003F912F910F900FBE0F901F901895E82F51
:10119000F0E0E753F74FE491E13019F0E33069F004
:1011A000089580916F008D7F80936F0090919402DD
:1011B000E0919502F091960208C0109285029091FC
:1011C0009102E0919202F09193028081282F30E009
:1011D000892F90E0809590958223932380830895B2
:1011E0001F920F920FB60F9211242F933F934F939C
:1011F0005F936F937F938F939F93AF93BF93EF937F
:10120000FF9380918502882349F080919102E091BB
:101210009202F0919302908189278083809142020B
:10122000882309F493C08091810290918202A09159
:101230008302B0918402892B8A2B8B2B09F486C000
:101240008091810290918202A0918302B0918402E8
:101250000197A109B1098093810290938202A09322
:101260008302B0938402892B8A2B8B2B09F06EC0EA
:10127000E0917F02F0918002BF016F5F7F4F70931A
:10128000800260937F024491942F907F842F8F700F
:10129000903819F40E94C708EBCF903981F4329648
:1012A000F0938002E0937F02FB016491909197029A
:1012B0008917F0F667FDDCCF0E94DC07D9CF903E9E
:1012C00029F41092800210927F02D2CF903F19F43D
:1012D000109242023BC097FDCBCF3296F093800232
:1012E000E0937F02FB01249130E0342BA091860231
:1012F000B09187020E946B216C507E4F8F4F9F4FA1
:1013000028EE33E040E050E00E9449212093810222
:101310003093820240938302509384028091810231
:1013200090918202A0918302B0918402892B8A2B32
:101330008B2B61F481E090E0A0E0B0E0809381022B
:1013400090938202A0938302B0938402FF91EF9165
:10135000BF91AF919F918F917F916F915F914F91CD
:101360003F912F910F900FBE0F901F901895E4E6BC
:10137000F0E08081877F8083E5E6F0E08081877FF1
:10138000808381E08093790208956038710518F5B3
:101390004034510500F5A42FA695A695A695B0E07A
:1013A00047705527B695BA2FAA27B795A7956A0F04
:1013B0007B1FFC01E60FF71F81E090E001C0880F62
:1013C0004A95EAF7222319F09489892B03C0809566
:1013D00094898923848B08952F923F924F925F9234
:1013E0006F927F928F929F92AF92BF92CF92DF9235
:1013F000EF92FF920F931F93CF93DF93CDB7DEB79A
:101400002A970FB6F894DEBF0FBECDBF6A3091F4B5
:10141000FC01E85EFB4F408132972081318158E02A
:10142000459F200D311D1124318320833297118275
:101430001082C1C06D3009F4BEC09A878987885E6A
:101440009B4F9C838B83DC012C90E985FA85EA5EB7
:10145000FB4F60807180E985FA85EC5EFB4FFA8373
:10146000E9830081118100381105D4F0AB81BC8182
:101470002C91422F50E0E981FA8180819181F6E040
:101480002F9F800D911D1124A981BA818D939C936A
:10149000E985FA85E75EFB4F208121115EC08BC094
:1014A000B0E46B16710414F7C801E5E02E9E800DC0
:1014B000911D112418161906CCF6422C512CC3018B
:1014C000F8E02F9E800D911D11241816190674F650
:1014D00055E0659F900111243F832E83E12CF12C70
:1014E00085E0E816F10441F0EE81FF81EE0DFF1D6D
:1014F000E257FD4F349001C0312C630138E0932D49
:1015000091709D834801882D801B8215B0F456018F
:101510008A2D8C19821568F42D81A501B401898565
:101520009A8538870E94C509AFEFAA1ABA0A38858A
:10153000EFCFBFEF8B1A9B0AE6CF36943150C40C25
:10154000D51C3111DCCFEFEFEE1AFE0A040D151D8C
:10155000F6E0EF16F10421F689CF6AEF64039001FB
:10156000659F300D112420583F4F281739071CF56F
:10157000A985BA85ED91FC9111970190F081E02D3C
:101580006AE0CD012A960FB6F894DEBF0FBECDBF3C
:10159000DF91CF911F910F91FF90EF90DF90CF904F
:1015A000BF90AF909F908F907F906F905F904F9083
:1015B0003F902F9009942A960FB6F894DEBF0FBE85
:1015C000CDBFDF91CF911F910F91FF90EF90DF90F2
:1015D000CF90BF90AF909F908F907F906F905F90D3
:1015E0004F903F902F900895EF92FF921F93CF93CB
:1015F000DF93EC01162FEA81FB817F0183E0E81A7B
:10160000F108F7FD3196CF0195958795019662E037
:1016100070E00E94FC2028813981BC01620F731F99
:10162000212FA70180EF92E00E94C5098A819B814A
:10163000FC01329797FD01969595879562E070E0E1
:101640000E94FC2028813981BC01620F731F212F69
:10165000AF0180EF92E00E94C509EA81FB817F0122
:1016600081E0E81AF108F7FD3196F595E795CF018D
:10167000019662E070E00E94FC2028813981BC0163
:10168000620F731F212FA70180EF92E00E94C5090E
:10169000EA81FB81CF01F7FD01969595879562E080
:1016A00070E00E94FC2028813981BC01620F731F09
:1016B000212FAF0180EF92E0DF91CF911F91FF903A
:1016C000EF900C94C5091F93CF93DF93EC01162F75
:1016D000EA81FB819F0121503109F7FD3196CF014D
:1016E0009595879562E070E00E94FC20A901481B57
:1016F000590B688179816F5F7F4F212F80EF92E0D6
:101700000E94C509EA81FB819F0121503109F7FD43
:101710003196CF019595879562E070E00E94FC209C
:10172000A901481B590B68817981212F80EF92E034
:101730000E94C5094A815B81688179816F5F7F4F13
:10174000212F80EF92E00E94C5094A815B81688168
:101750007981212F80EF92E0DF91CF911F910C943E
:10176000C509EF92FF921F93CF93DF93EC01162FE1
:10177000EA81FB817F0182E0E81AF1083196F7FDEA
:101780003196CF019595879562E070E00E94FC202C
:1017900028813981BC01620F731F212FA70180EFBF
:1017A00092E00E94C5094A815B81415051096881DC
:1017B00079816F5F7F4F212F80EF92E00E94C509F2
:1017C0004A815B814150510968817981212F80EFE5
:1017D00092E00E94C509EA81FB81CF01F7FD0196E5
:1017E0009595879562E070E00E94FC202881398100
:1017F000BC01620F731F212FAF0180EF92E0DF91D8
:10180000CF911F91FF90EF900C94C509CF93DF9378
:1018100025E24CE367E170E081E290E00E9445112F
:1018200085E290E090930507809304078CE190E0B7
:101830009093070780930607C4E8D2E0FE01649105
:10184000662369F0E091F002F091F1020190F081DD
:10185000E02D80EF92E009952196892B79F7DF91B1
:10186000CF910895E7E4F2E0148223E1258380E438
:1018700090E09383828344EF5AE0578346834EE699
:1018800055E051874087168627879587848743E6EA
:101890005BE0518B408B4FE955E0538B428B108EB0
:1018A000218F978B868B81EB9BE0938F828F89E5CD
:1018B00095E0958F848F0895CF93DF931F92CDB7D6
:1018C000DEB768E772E088E00E94A707882329F066
:1018D00089830E94B709898113C067E772E084E0B9
:1018E0000E94A707882361F010927902909164000A
:1018F0009860909364009091650098609093650063
:101900000F90DF91CF9108952F923F924F925F9267
:101910006F927F928F929F92AF92BF92CF92DF92FF
:10192000EF920F931F93CF93DF93EC01162FD7FD08
:10193000079623E0959587952A95E1F762E070E098
:101940000E94FC2045E0489F9001499F300D1124E2
:10195000C901865E9D4F1C01C9018C5D9D4F2C0104
:10196000C901825D9D4F5C016E0194E1C91AD108E5
:101970003BE1832E912C712C4BEA642E769C812DB9
:101980001124869539F0813051F4E12E03E025E0F1
:10199000A20109C0E12E03E025E0A10104C0E12E6F
:1019A00003E025E0A501B601C4010E94DB0F73949A
:1019B00085E0880E911C93E0C90ED11C88E0781256
:1019C000DDCF4E0192E0891A910883E4C82ED12C14
:1019D00096E0692E712CC30163E070E00E94FC2048
:1019E0006115710541F06130710551F4E12E03E09C
:1019F00025E0A20109C0E12E03E025E0A10104C019
:101A0000E12E03E025E0A501B401C6010E94DB0F31
:101A100081E0681A710895E0C90ED11C83E0881A2C
:101A2000910896E6C916D104B1F6E12E03E027E04D
:101A300048E352E06CE170E081EA90E08C1B9D0B82
:101A40000E94DB0F27E048E352E06FE170E0CE0137
:101A50008A970E94DB0FDF91CF911F910F91EF903A
:101A6000DF90CF90BF90AF909F908F907F906F90BE
:101A70005F904F903F902F900895482F64E170E061
:101A80008DE090E00C9474051F93CF93DF93EC01ED
:101A9000162F4A815B8168817981212F80EF92E046
:101AA0000E94C5094A815B814F5F5F4F68817981E0
:101AB000212F80EF92E0DF91CF911F910C94C50907
:101AC000EF920F93E62EFC016281738180819181F8
:101AD00003E023E041E852E001970E94DB0F0F9101
:101AE000EF9008951F93CF93DF93EC01162F4A8157
:101AF0005B8168817981212F80EF92E00E94C50986
:101B00004A815B81688179816F5F7F4F212F80EFF0
:101B100092E00E94C5094A815B8141505109688168
:101B20007981212F80EF92E00E94C5094A815B8173
:101B300041505109688179816F5F7F4F212F80EF7C
:101B400092E0DF91CF911F910C94C509DC011696AC
:101B5000ED91FC91179709944F925F926F927F924B
:101B6000AF92BF92CF92DF92EF92FF920F931F93AB
:101B7000CF93DF93EC018F819885019709F086C0A0
:101B80008A810E8191E0900F9E8320EF20038001D7
:101B90001124080F111D101611060CF05BC08D8169
:101BA00028819981E22FF92FE80FF11DE80FF11D2F
:101BB000A080B18081E080937E022501612C712C90
:101BC00060E072E18AE790E0A30192010E942A217D
:101BD00069017A0181E0C81AD108E108F108C1144D
:101BE000D10421E0E206F10488F068E478EE81E0B7
:101BF00090E0A30192010E942A2169017A0181E00B
:101C0000C81AD108E108F10893E001C091E0809181
:101C10008100887F892B809381009501220F331FDB
:101C2000D8010E94162128EE33E040E050E00E94E7
:101C30004921D0928900C092880020937A02309383
:101C40007B0240937C0250937D0280916F00826002
:101C500080936F009E818B818917C0F41E8228813A
:101C600099818D818F5F8D83E22FF92FE80FF11D10
:101C7000E80FF11D8081918197FF08C08C8181114F
:101C800004C082E090E098878F831D82DF91CF911E
:101C90001F910F91FF90EF90DF90CF90BF90AF908A
:101CA0007F906F905F904F900895FC0187819085A1
:101CB000892B31F481E090E090878783168215822A
:101CC0000895AF92BF92CF92DF92EF92FF920F935F
:101CD0001F93CF93DF931F92CDB7DEB77B0134E024
:101CE000239F800D911D1124BC01645071095B017B
:101CF0008AE0C82ED12C2223A1F0CA01B6010E948D
:101D0000E820162F072F482FB701C50129830E940D
:101D1000740574E0A71AB108412F502F2981215072
:101D2000EACF0F90DF91CF911F910F91FF90EF902D
:101D3000DF90CF90BF90AF90089540916502509191
:101D4000660224E064E170E08DE690E00C94610EA0
:101D5000FC0180919002811103C08FEF9FEF0895E5
:101D60009FB7F89482E08093E9002091F20030E080
:101D70001216130614F421E030E02115310559F054
:101D8000289884E680938F028091F100808380916F
:101D9000F200882319F09FBFC90108958BE6809354
:101DA000E800F9CFCF93DF931F92CDB7DEB76983F9
:101DB000DC01ED91FC910280F381E02D41E050E0E7
:101DC000BE016F5F7F4F09950F90DF91CF9108950E
:101DD00083E08093E9008091F200882319F08AE380
:101DE0008093E8000895CF93DF931F92CDB7DEB7BD
:101DF000FC018485958597FD05C02FEF3FEF358762
:101E000024870BC0CE0101960E94A80E019719F4F9
:101E1000898190E002C08FEF9FEF0F90DF91CF910B
:101E200008950F931F93CF93DF931F92CDB7DEB723
:101E30008C01FC018485958597FF0EC0CE0101962B
:101E40000E94A80E019719F4298130E002C02FEFFB
:101E50003FEFF80135872487F801848595850F9039
:101E6000DF91CF911F910F910895FC018485958595
:101E700097FD0BC09FB7F89482E08093E9008091B2
:101E8000F2009FBF90E0019608959FB7F89482E01A
:101E90008093E9008091F2009FBF90E008958F92B7
:101EA0009F92AF92BF92CF92DF92EF92FF920F93E9
:101EB0001F93CF93DF935C016B018A018091EA014C
:101EC000882309F45EC080919002882309F459C0E8
:101ED00080918E0280FF05C08091E0008260809337
:101EE000E000E8018AEFF82E93E0E92E2FE3822E3E
:101EF0003AE3932E209709F43DC08FB7F894E0920F
:101F0000E9009091E80095FF06C09091F200282D1D
:101F1000291B922F01C090E08FBF91110AC0FA9443
:101F2000FF2079F161E070E080E090E00E94060718
:101F3000E1CF292F30E0C217D3070CF49C2F8FB7C5
:101F4000F894E092E9002091E80025FF11C0292FC4
:101F500030E0C21BD30BF601915020F04191409329
:101F6000F100FACFC20ED31E9091E80095FF13C086
:101F70008FBFC0CF5D9884E680938D021016110646
:101F800044F081E090E0F5019383828380E090E06B
:101F900005C0C80103C09092E800EACFDF91CF915D
:101FA0001F910F91FF90EF90DF90CF90BF90AF9077
:101FB0009F908F9008952F923F924F925F926F92D1
:101FC0007F928F929F92AF92BF92CF92DF92EF92C9
:101FD000FF920F931F93CF93DF93CDB7DEB7289770
:101FE0000FB6F894DEBF0FBECDBF222E312C9C0160
:101FF000220D331D37FD30C1803891050CF02CC106
:102000009B01200F311D37FD27C1603471050CF095
:1020100023C1DB0177FF04C0AA27BB27A61BB70B90
:10202000A770BB279B0177FF02C0295F3F4F13E0DA
:10203000359527951A95E1F777FF08C021503109AA
:1020400068E070E05B01AA1ABB0AD501E02FE695B3
:10205000E695E695CE2ED12C077019F00FEFC01A39
:10206000D00AB9017695762F662777956795680F20
:10207000791F5601A20EB31EBC82AB82412C512C9B
:10208000F8E0CF2ED12C86010A1B1B0B1A83098383
:10209000AB80BC802A153B0509F4DEC02830310531
:1020A00009F4DAC02F3F1FEF31070CF4CAC03B011F
:1020B000E0E86E0E711C8B010C571C4F1E830D83C4
:1020C0004C0100E010E0021513050CF0BAC0E0E886
:1020D0008E16910409F4B5C097FCA8C02F3FFFEFFE
:1020E0003F0709F4B5C0F801E40DF51DCD80DE8091
:1020F000C618D708AA24A394E40FF51FEA1013C04A
:10210000E491C60ED71EF0E05F010A2E02C0AA0CB1
:10211000BB1C0A94E2F7B886AF82F601B080EF816B
:10212000F885EB292BC0E11017C0E491C60ED71E2D
:10213000F0E00A2E02C0EE0FFF1F0A94E2F75F01E3
:10214000A094B094B886AF82F601A080B12CEF8144
:10215000F885AE22BF2213C0E491C60ED71EF0E070
:102160005F010A2E02C0AA0CBB1C0A94E2F7B886D3
:10217000AF82F601B080EF81F885EB255F01F601B3
:10218000A082109709F452C02730310509F44EC0DF
:10219000F801E40DF51DAA24A394EA1011C0E40F80
:1021A000F51FE491CE2ED12C5601098002C0B594C2
:1021B000A7940A94E2F7ED81FE81D080AD2835C066
:1021C000CD80DE80C618D708E40FF51FE11018C0D7
:1021D000E491C60CD71CAE2EB12C098002C0B59478
:1021E000A7940A94E2F7F501E095F095F887EF835C
:1021F000F601A080B12CEF81F885AE22BF2214C079
:10220000E491C60CD71CAE2EB12CF501098002C09A
:10221000F595E7950A94E2F7F887EF83F601B08029
:10222000EF81F885EB255F01F601A0820F5F1F4F5C
:10223000ED81FE813196FE83ED83FFEF8F1A9F0AB9
:1022400042CF2F5F3F4F420C531C60587F4F20CF2F
:10225000109709F09DCFEACF28960FB6F894DEBF0D
:102260000FBECDBFDF91CF911F910F91FF90EF90E7
:10227000DF90CF90BF90AF909F908F907F906F90A6
:102280005F904F903F902F900895AF92BF92CF9262
:10229000DF92EF92FF920F931F93CF93DF937B0117
:1022A000EC015C01A40EB11C6B01C20ED11CCA155D
:1022B000DB05E4F48701F7FE0FC000E010E00CC07E
:1022C000081719078CF420E0A801BE0180EF92E006
:1022D0000E94C5090F5F1F4FC60121E4C216D10439
:1022E0007CF380E490E0ECCF2196E1CFDF91CF91B9
:1022F0001F910F91FF90EF90DF90CF90BF90AF9024
:1023000008952F923F924F925F926F927F928F9299
:102310009F92AF92BF92CF92DF92EF92FF920F9374
:102320001F93CF93DF939C01AB01A091DE02B0918C
:10233000DF02E090E202F090E302B701AE15BF05C4
:102340000CF4BD01C091E002D091E102C090E40222
:10235000D090E502C601CC15DD050CF4CE01621764
:1023600073070CF084C06D5B7F4F621773070CF42A
:102370007EC0841795070CF07AC04A96841795079B
:102380000CF475C05090E8027BEA672E72E0772E5D
:102390008301EAE03E2EF4E0AF2EB12C86E0282E39
:1023A000402E4618451450F5F80181918F0188237D
:1023B000B9F3842D632D0E94CE20B701F7E09F9FD3
:1023C000600D711D11242617370754F36C5F7F4F82
:1023D000621773072CF34501881A9108289CF001B5
:1023E000299CF00D1124EC0DFD1D4E175F07C4F262
:1023F0003296E417F507A4F2842D3AC08AE0F82E4D
:1024000094E0C92ED12C66E0E62E61E3651578F1E3
:10241000852D90E085559D4FFC018081882329F111
:10242000852D6F2D0E94CE208D01F7E09F9F000D1E
:10243000111D112420173107C4F00C5F1F4F021724
:1024400013079CF0B601681B7109E69EC001E79E68
:10245000900D11248C0F9D1F4817590734F00296D8
:102460008417950714F0852D03C05394CECF8FEFBA
:10247000DF91CF911F910F91FF90EF90DF90CF9060
:10248000BF90AF909F908F907F906F905F904F9094
:102490003F902F90089523E047E060E070E0809146
:1024A000A5029091A6020C944511262F26952695FB
:1024B0002695677090E8299F9001112420513D4F87
:1024C000F901E80FF11D8489282F30E081E090E0C8
:1024D000062E02C0880F991F0A94E2F782239323E5
:1024E00002C0959587956A95E2F7089523E045E047
:1024F0006DE370E080919802909199020C944511DF
:1025000020E084E093E0B22FB111BFEFFC01002482
:10251000B193B193B193B1930394D1F70895CF934D
:10252000DF9390919702923009F46EC0C82F292F43
:1025300030E0F901E753F74FD491F901EA5EF84F23
:1025400080839F5F9093970261E00E943206D130B2
:1025500019F0D33039F158C01092800010928100E8
:1025600080918100886080938100809181008160EA
:10257000809381008C2F90E0FC01E655F74FE491A9
:10258000F0E0EE0FFF1FE456F74F259134913093A2
:10259000960220939502FC01E358F74F84918093B3
:1025A000940232C01092900010929100809191009C
:1025B0008860809391008091910081608093910068
:1025C0008C2F90E0FC01E655F74FE491F0E0EE0F20
:1025D000FF1FE456F74F25913491309393022093D7
:1025E0009202FC01E358F74F84918093910280910D
:1025F0009702882321F06CE380E00E94DC0780E0F2
:10260000DF91CF910C94C708DF91CF91089580910D
:102610000E0781110DC082E080930A0784E0809349
:102620000B0710920D0710920C0781E080930E07A4
:102630008AE097E0089540916D0750916E072091D0
:102640006B0730916C0742175307B4F49091E80080
:102650009570E1F39091E80092FD19C08093F1002C
:1026600080916D0790916E0701968F739927892B42
:1026700019F48EEF8093E80080916D0790916E07BA
:10268000019690936E0780936D0781E0089580E036
:102690000895CF92DF92EF92FF920F931F93CF9303
:1026A000DF931F92CDB7DEB7182F062FE42E862FAB
:1026B000880F8E5F99830E941B1383E00E941B1377
:1026C000F12EC12E9981D92E8C2D8F19801798F457
:1026D000F601E7FE02C0849101C080810E941B13B5
:1026E000182F80E00E941B138123FFEFCF1ADF0A0F
:1026F0008111EACF01C081E00F90DF91CF911F914E
:102700000F91FF90EF90DF90CF900895DF92EF92BE
:10271000FF920F931F93CF93DF93D82E8A017B01F3
:10272000E40EF51EEB01CE15DF0571F0D7FE03C0F8
:10273000FE01849101C088810E941B1321968111A2
:10274000F2CF8FEF9FEF01C0C801DF91CF911F91B2
:102750000F91FF90EF90DF900895615030F020913D
:10276000F100FC0120830196F8CF289884E680933D
:102770008F0208950F931F93CF93DF931F92CDB7CE
:10278000DEB782E0898342E450E06BEC78E080E8D9
:102790000E9486130E940713DC0112960D911C9172
:1027A00013970115110569F0D801ED91FC91028094
:1027B000F381E02DBE016F5F7F4FC801099597FF40
:1027C00007C089810F90DF91CF911F910F910895DC
:1027D000F80100851185E5CF1F920F920FB60F9279
:1027E00011248F939F938091E1009091E100937F5A
:1027F0009093E10083FF0FC01092E90091E0909365
:10280000EB001092EC0092E39093ED001092900296
:1028100098E09093F00082FF20C093E09093E9004D
:102820009091F200992319F09AE39093E800909127
:102830008D02992339F090918D02915090938D02E1
:10284000992389F190918F02992339F090918F0209
:10285000915090938F02992341F184FF10C0809191
:10286000E2008E7E81608093E2008091E1008F7EA5
:102870008093E10080918E028E7E806111C080FF86
:1028800016C08091E2008E7E80618093E20080918C
:10289000E1008E7E8093E10080918E028E7E8160C9
:1028A00080938E0204C05D9ACDCF289AD6CF9F9197
:1028B0008F910F900FBE0F901F9018951F920F923F
:1028C0000FB60F921124CF92DF92EF92FF920F93E7
:1028D0001F932F933F934F935F936F937F938F93A8
:1028E0009F93AF93BF93EF93FF93CF93DF93CDB7B6
:1028F000DEB76C97DEBFCDBF1092E9008091E80093
:1029000083FFFAC168E0CE0145960E94AD1382EFC5
:102910008093E8008D8987FF05C09091E80090FFC3
:10292000FCCF03C09EEF9093E800982F907609F0BB
:10293000C6C09E892F89188D91110CC0803829F44A
:10294000809169078093F10002C01092F10010920B
:10295000F10047C1422F50E0512B913051F48111C9
:1029600040C14130510509F03CC1809169078D7F1C
:102970000BC0933061F4811134C14130510509F02D
:1029800030C1809169078260809369072AC19530C0
:1029900041F48091E80080FFFCCF20682093E300A1
:1029A00020C1963009F05FC0EB8CFC8C1092E900DE
:1029B00010926E0710926D07123091F510926C070D
:1029C00010926B070E94BA1399E0BE016F5F7F4FB0
:1029D000DB01E92F1D92EA95E9F799831A8391E0CB
:1029E0009E8390EA98879AEF998720916D0730919E
:1029F0006E07275F3F4F3C832B838D831092E90046
:102A000010926E0710926D07F0926C07E0926B07C0
:102A100049E050E080E00E9486130E94BA13E1C0B2
:102A2000F0926C07E0926B070E940713DC0112968C
:102A3000ED90FC901397E114F10409F4C0C0D701A4
:102A4000ED91FC910480F581E02DBE016B5E7F4F1E
:102A5000C7010995009719F00CF0C3C0C6C0F70173
:102A6000E084F184E8CF973009F4BFC0983021F4B6
:102A700081E08093F100B5C0993009F0B2C0837055
:102A800009F0B3C0EBE3F2E081E021E036E39081AE
:102A9000992361F08093E9002093EB00919190934A
:102AA000EC003093ED008F5F873089F78EE78093DD
:102AB000EA001092EA008F898093900292C08B8D79
:102AC0009C8D1092E90010926E0710926D07909302
:102AD0006C0780936B07898D811156C08E899D8903
:102AE000913A59F4813209F080C047E050E063EE3A
:102AF00071E080E00E94861374C0913209F075C0C5
:102B0000833289F4888D90E0982F88272F89822B33
:102B1000A0E0B0E08093EB019093EC01A093ED0175
:102B2000B093EE015EC0803269F48091E80082FFCC
:102B3000FCCF67E083EE91E00E94AD138BEF8093B2
:102B4000E80006C0823209F04CC08F898093EA0108
:102B500080916807882319F0EEEFFAE002C0E0E008
:102B6000F8E08091E3019091E401A091E501B0913A
:102B7000E601803B9440A105B10509F088C0809131
:102B8000EA0180FFA0C083C00E940713DC011296F7
:102B90000D911C9113970115110539F1D801ED9193
:102BA000FC910190F081E02DBE016B5E7F4FC8016A
:102BB0000995811116C0F80100851185ECCF1130FF
:102BC000C1F0133091F48F89882309F455C0823005
:102BD000E9F440E867E08DE199E00E944913882319
:102BE00021F08EEF8093E80087C081E28093EB00B4
:102BF00083C08B8D9C8D089711F410936A07809188
:102C00006A07811136C065E279E038C0813029F465
:102C100040E86BE081E199E0E0CF833031F70E943A
:102C20000713DC011296ED90FC9013978E010F5F55
:102C30001F4F6801E114F10479F0D701ED91FC9187
:102C40000680F781E02DB801C7010995080F111D15
:102C5000F701E084F184EECFD8011C92F6010190D7
:102C60000020E9F73197BF016C197D0940E0C601EA
:102C7000B4CF67E379E002C06DE079E061157105DA
:102C800009F4B3CFFB01449150E080E833CF0FB695
:102C9000F894A895809160008861809360001092FC
:102CA00060000FBEA895EE3F2AE0F20739F0809150
:102CB000FE0A9091FF0A9183808393CF1092FF0ABE
:102CC0001092FE0A8ECFEE3F8AE0F80731F0808145
:102CD00091819093FF0A8093FE0A87E797E791839B
:102CE00080839BE088E10FB6F894A89580936000FC
:102CF0000FBE9093600075CF6C960FB6F894DEBF50
:102D00000FBECDBFDF91CF91FF91EF91BF91AF91FA
:102D10009F918F917F916F915F914F913F912F91F3
:102D20001F910F91FF90EF90DF90CF900F900FBE0B
:102D30000F901F901895CF93DF93CDB7DEB76197B3
:102D40000FB6F894DEBF0FBECDBF789484B5826015
:102D500084BD84B5816084BD85B5826085BD85B53F
:102D6000816085BD80916E00816080936E001092BD
:102D70008100809181008260809381008091810038
:102D800081608093810080918000816080938000C9
:102D90008091910082608093910080919100816088
:102DA0008093910080919000816080939000809149
:102DB000C10084608093C1008091C10082608093D3
:102DC000C1008091C10081608093C1008091C300E7
:102DD00081608093C3008091C00082608093C000B6
:102DE0008091C20081608093C20080917A008460EB
:102DF00080937A0080917A00826080937A0080913B
:102E00007A00816080937A0080917A008068809354
:102E10007A00109290021092690710928E028091AF
:102E2000D70081608093D70080EA8093D80089B56D
:102E3000806189BD89B5826089BD09B400FEFDCF7E
:102E400061E070E080E090E00E9406078091D80089
:102E50008F7C80618093D8008091E000807F809398
:102E6000E0008091E1008E7E8093E1008DE0809310
:102E7000E200559A209AEEEFFFE7859194918B3FFF
:102E80009C4D19F481E0809368071FB7F8948091F6
:102E90006D02811127C0EBEBF8E08491EEE8F8E0D9
:102EA0009491E82FF0E0EE0FFF1FE856FE4FA5913A
:102EB000B491EC91E92321F461E081E10E94CF0516
:102EC00061E081E10E9432068CB580618CBD8CB5D9
:102ED00080648CBD61E08FE00E94320661E080E199
:102EE0000E94320680916D028F5F80936D021FBF3A
:102EF00003EB11E0F80184910E5F1F4F319664914E
:102F0000882319F00E943206F5CF61E086E00E9426
:102F1000CF0561E070E080E090E00E94060760E08D
:102F200086E00E94CF056AE070E080E090E00E94B9
:102F3000060761E086E00E94CF05E6EBF8E0E49149
:102F4000F0E0EE0FFF1FE456F74F859194919093B8
:102F5000730280937202E9E8F8E0E491E093710271
:102F6000EEEAF8E0E491F0E0EE0FFF1FE456F74FD1
:102F7000859194919093700280936F02E1E8F8E05C
:102F8000E491E0936E028CB58C7F8CBD8DB5816031
:102F90008DBDE0917202F091730290818091710277
:102FA000982B9083A0916F02B09170022C91909118
:102FB0006E02909592239C939081809589238083C3
:102FC000E6EAF1E021E0E33BF20749F084918EBDAF
:102FD00000000DB407FEFDCF8EB53196F3CFE09122
:102FE0006F02F0917002908180916E02892B808334
:102FF000E0917202F091730290818091710280954C
:103000008923808380916400816080936400809133
:103010006400826080936400809164008068809383
:1030200064008091640080648093640080916500F6
:103030008160809365000E948A0787FF1AC080E044
:1030400094E01EBC00000DB407FEFDCF2EB5019725
:10305000C1F760E070E08AE00E946E0660E070E018
:103060008BE00E946E0660E070E089E00E946E06D0
:10307000FFCF7EEEC72EDD24DA9418E1AA24AA94AD
:10308000B12C812F8C19B501681B71098AE00E944F
:103090006E066FEF70E08BE00E946E066FEF70E0DF
:1030A00089E00E946E060E948012EE24E39400E103
:1030B00028E548EE50E0B60184E190E00E94DB0F85
:1030C00084E093E00E94CC076BE170E080E090E048
:1030D0000E94060730EFC31206C06AEF70E080E07E
:1030E00090E00E9406075FEFC51AD50A89E1C8166D
:1030F000D10439F66EEE72E080E090E00E9406079F
:103100006FEF70E08AE00E946E066FEF70E08BE078
:103110000E946E066FEF70E089E00E946E0685E007
:103120000E948F128DE00E948F121092420282E064
:1031300090E00E94222181110E94B7090E94801212
:103140008CE38093F60280E18093F90284E090E0C2
:1031500090936C0280936B02DE0111964D018BEA15
:1031600092E032E3380F3F878BE092E03AE0380F8D
:10317000388B60E2262E312C44244394512C52E0AB
:10318000C52ED12C2FB7F894809143029091440220
:10319000A0914502B09146022FBF20910203222345
:1031A00091F02091FA02582F521B50930303209163
:1031B000F7023091F8022F5F3F4F3093F8022093CF
:1031C000F702109202034091FE025091FF026091BB
:1031D00000037091010384179507A607B7077CF4D5
:1031E000481B423008F4CAC683B7817F83BF83B7C8
:1031F000816083BF889583B78E7F83BFBFC62091D0
:10320000F902AC01BD01420F511D611D711D4093BA
:10321000FE025093FF0260930003709301038093BA
:10322000FA029093FB02A093FC02B093FD0221E00E
:103230002093020380916B0290916C028230910581
:1032400081F03CF4009709F46DC5019709F486C03C
:1032500091C68330910509F4AAC5049709F4C6C53F
:1032600089C620E448E560E070E083E190E00E94D8
:10327000451130929902209298021092A1028FEF8C
:103280008093A0028EE080939F021092A202809110
:10329000690299E0E3EFF1E0D40101900D929A9573
:1032A000E1F769E00E94CE20F401E90FF11D808171
:1032B000A3E08A02C00111240796EBEAF2E021E0C4
:1032C00021933F853E13FCCFACE1B0E0B093DF0229
:1032D000A093DE025092E7024092E602EDE1F0E0B8
:1032E000F093E302E093E2029093E1028093E00224
:1032F0009093E5028093E4021092EB021092EA02AE
:103300001092E8021092E9021092EC021092ED0283
:103310001092EE021092EF0282E38093DD0210928F
:10332000A4021092A3028FEF8093A90230E2A32E91
:10333000B12CEE24E39406E028E04BE552E064E390
:1033400070E0C5010E94DB0FF2E1AF0EB11C28E670
:10335000A216B10471F70E94320C10C58091A2022E
:10336000882351F0813009F05EC060E08BE992E083
:103370000E94440D8FEF7BC08091A102811103C098
:103380002093A10276C01092A1020E9476120E94A0
:103390008A0786FF09C08091980290919902019650
:1033A00090939902809398020E948A0785FF09C032
:1033B000809198029091990201979093990280933D
:1033C000980280919802909199028331910530F092
:1033D0008736910528F086E690E002C083E190E010
:1033E0009093990280939802EE24E39403E025E001
:1033F00046E052E06DE370E00E94DB0F009198021E
:10340000109199028091A0028F3F99F58091EE0270
:1034100081112FC00E948A0783FDB8C50E948A07C8
:1034200082FDB4C526C00E9476128091A202082EA9
:10343000000C990B9595879595958795B6010E94F7
:10344000FC2025E0289FA001299F500D1124455FF5
:103450005D4FEE24E39403E06DE370E08091980209
:10346000909199020E94DB0F8091A202815080937B
:10347000A2028091A20281113BC385E0ECEFF1E052
:10348000D40101900D928A95E1F785E08A878AE060
:103490008B878FE08C878EE18D878091A0028823B7
:1034A000C1F024F48F3F09F4DAC0B2C0813009F4CE
:1034B000A6C0883109F0ACC060E08BE992E00E94C0
:1034C000440D61E08BE992E00E94600D8091A002C2
:1034D0009FC060E08BE992E00E94440D8091A002C1
:1034E00081110FC080919D0290919E02029790934E
:1034F0009E0280939D02181619061CF088E18093A5
:10350000A00200919D0210919E02E0909B02F0901B
:103510009C02B801C7010E94811187FD1BC0E82FE2
:10352000082E000CFF0BE555FD4F10828093EF0233
:1035300098E19093EE029091DD0291509093DD021C
:103540006AE00E94DA20F401E81BF10987FDF39597
:1035500014812FC08091A90281112FC00330110561
:1035600060F58091A5029091A602E816F90628F16F
:103570000796E816F90608F588E78093A9020E94E5
:103580004B12E0919F02ED3028F4F0E0EB5EFD4F2E
:10359000108101C011E088E78093A9020E944B12BC
:1035A0001093AA02EAE0F0E0EC0FFD1FE10FF11D1D
:1035B00010818FEF8093A00218C0C801C5970597AE
:1035C00008F007C58091EA029091EB0280179107FD
:1035D0000CF0FFC4602F8E2D0E945512882309F431
:1035E000F1C488E18093A00210E08091A0028111D3
:1035F00011C061E08BE992E00E94440D0BC060E0D5
:103600008BE992E00E94600D8FEF8093A00227C0AB
:103610008150FBCF112319F1E0906502F090660212
:10362000012F10E056E9E516F1048CF4C701800F74
:10363000911F873991055CF080916A028F5F8093BA
:103640006A020E943D0D8AED91E00E94550E0E0D1A
:103650001F1D10936602009365020E949D0E8CE46C
:10366000E82E82E0F82E07E412E09BE4A92E92E017
:10367000B92ED7018C91882331F11CF48F3F61F072
:1036800091C0813009F484C0843109F08BC061E0BD
:10369000C8010E94720D86C0F50180818F5F808312
:1036A0008D3344F0809174028F5F80937402853172
:1036B00008F0B1C4D7018C91811178C061E0C801D4
:1036C0000E94A60D73C0F501808184301CF48F5FC9
:1036D000808345C0108260E0C8010E94A60DF801F9
:1036E000828193813C01F2E06F0E711CD801139628
:1036F0007C926E921297B1E46B16710424F023E170
:10370000F70120832CC0C397059728F5D8019C9119
:10371000662D892F998B0E9455129989811117C0A6
:1037200021E0290F2E87662D822F0E94551299893C
:1037300081110DC06A94662D892F0E945512811146
:1037400006C0662D8E850E945512882321F0E4E183
:10375000D701EC9304C061E0C8010E94A60DD80116
:103760002D913C91119712968D919C911397CE9724
:103770000297E0F42F5F3F4F809198029091990259
:103780002817390798F005968217930778F04DC4EB
:1037900060E0C8010E94720D2FEFF7012083D50170
:1037A0001C9204C0F701808181508083FAE0EF0E03
:1037B000F11C065F1F4F2AE0A20EB11C32E0053655
:1037C000130709F056CF8091A902882301F124F450
:1037D0008F3F09F451C068C0813009F461C0883757
:1037E00009F062C04091AA0287E0489FA00111241D
:1037F000415C5D4FEE24E39403E027E060E070E07D
:103800008091A5029091A6020E94DB0F4DC080918D
:10381000A3029091A4028330910530F40196909315
:10382000A4028093A30245C01092A4021092A302A6
:103830000E944B122091A7028091A5029091A602AE
:10384000820F911D27FD9A959093A6028093A50261
:103850009C01245131092035310518F021E02093D5
:10386000A902EE24E39403E027E048E352E060E09D
:1038700070E00E94DB0F1DC09091DD029830C8F00F
:103880002091A3023091A402A9014F5F5F4F509392
:10389000A4024093A3022D3D354008F0DFC309C0C8
:1038A0000E944B128FEF03C08091A9028150809338
:1038B000A9028091EE02813009F4F6C0883109F442
:1038C000A2C0811112C18091E8020AE0602F0E941B
:1038D000CE20392F14E0912F981B6091E002709157
:1038E000E102A6E09A9F600D711D11248091DE0215
:1038F0009091DF0223E045E0B7E03B9F800D911DF2
:1039000011240E9445118091E802E82FF0E0E5556E
:10391000FD4F9081992309F466C0602F0E94CE204C
:10392000181B6090E2027090E302E7E09E9F600C3B
:10393000711C1124A090E402B090E502F6E01F9FF4
:10394000A00CB11C1124133058F44091E90211303D
:1039500090F425E0429FA0011124425D5D4F14C008
:10396000153080F44091E90285E0489FA0011124C0
:10397000465E5D4F09C035E0439FA00111244C5DB8
:103980005D4F02C040E050E0EE24E39403E025E008
:10399000B501C3010E94DB0F94E1691671043CF488
:1039A0008091E6029091E70297FF0FC00BC0A6E658
:1039B0006A16710454F08091E6029091E70218169D
:1039C00019061CF481E08093EC022091EA02309108
:1039D000EB02C5010396821793070CF4C90190937B
:1039E000EB028093EA028091E8028F5F823308F055
:1039F0004EC3E82FF0E0E555FD4F90819923A9F3E0
:103A00008093E80275C03091EF02832F6AE00E9434
:103A1000CE20592F24E0281B8091E802381748F067
:103A20008091DE029091DF026091E0027091E102EC
:103A300008C08091E2029091E3026091E4027091EB
:103A4000E502B6E02B9F600D711D112423E045E0D7
:103A5000E7E05E9F800D911D11240E944511809129
:103A6000EF026AE00E94CE20392F94E0981B60910B
:103A7000E4027091E502F6E09F9F600D711D112434
:103A80008091E2029091E302EE24E39403E025E0CA
:103A900045E152E0A7E03A9F800D911D11240E945C
:103AA000DB0F8091EE0221C08091EF026AE00E945C
:103AB000CE20392F24E0281B6091E4027091E502AA
:103AC000B6E02B9F600D711D11248091E202909150
:103AD000E30223E045E0E7E03E9F800D911D1124C5
:103AE0000E9445111092EE0203C081508093EE02B5
:103AF0008091A2028F3F21F410926C0210926B020F
:103B00008091DD0281110DC08091EE02811109C00A
:103B1000809169028F5F80936902D0926C02C0929B
:103B20006B028091ED02882341F00E94060C83E035
:103B300090E090936C0280936B022091EE0222231E
:103B400039F08091BD019091BE012731B1F01CC0C8
:103B50009091DD028091A701A1E0B2E0EBE0F2E0FC
:103B60002191921301C08C91119638893E13F8CFA0
:103B70008093A70184EA91E004C0892B59F486EB75
:103B800091E00E94550E06C0029721F41092BE01EA
:103B90001092BD018091A9028130B1F0873729F0E0
:103BA00081113AC08FEB91E00CC08091C6019091D9
:103BB000C701019721F4D092C701C092C60188ECD9
:103BC00091E00E94550E28C08091C6019091C701D6
:103BD000019721F4D092C701C092C6018091C6011D
:103BE0009091C701029721F41092C7011092C6016B
:103BF0008091CF019091D001019721F4D092D00112
:103C0000C092CF018091CF019091D001029721F411
:103C10001092D0011092CF018091A202813039F030
:103C20008E37C9F481ED91E00E94550E14C0809149
:103C3000D8019091D901019721F4D092D901C09275
:103C4000D8018091D8019091D901029721F4109266
:103C5000D9011092D8018091A002882329F08130E7
:103C600071F08F3F09F516C08091B4019091B501B4
:103C7000892BD1F48DEA91E00E94550E15C08091F8
:103C8000B4019091B501019779F4D092B501C09239
:103C9000B4010AC08091B4019091B501029721F45A
:103CA0001092B5011092B40180916B0290916C0258
:103CB000019781F484EA91E00E94AC0D0DEA11E0D5
:103CC000C8010E94AC0D075F1F4F51E0033E15076E
:103CD000B9F750C18091AB019091AC01019721F4EB
:103CE000D092AC01C092AB018091AB019091AC013C
:103CF000029721F41092AC011092AB01EDEAF1E0D1
:103D000087819085019711F4D086C782878190853D
:103D1000029711F410861782399681E0E33EF80786
:103D200079F728C180916A02815080936A020E94CB
:103D30003D0D0E94761230929902209298021092C4
:103D4000A1028FEF8093A0028EE080939F021092D9
:103D5000A20260E087E492E00E94A60D60E081E5A7
:103D600092E00E94A60D60E08BE592E00E94A60D15
:103D70000E94320C80916A02882329F050926C02D2
:103D800040926B02F7C00E94060C809165029091F0
:103D9000660220916702309168022817390724F4DF
:103DA000909368028093670283E090E014C0809152
:103DB0007502909176029C012F5F3F4F30937602FF
:103DC00020937502893C91055CF010927602109266
:103DD000750284E090E090936C0280936B02CAC0FD
:103DE0000E945C0C882309F4C5C0ABC080917502A9
:103DF000909176028E319105F1F054F48A3091055C
:103E0000D1F08431910571F08130910531F50AC00E
:103E10008233910581F08835A2E09A07C9F0883293
:103E20009105D9F420E440E860E070E080E090E0A3
:103E30000E94451126C0EE24E39408E020E446ECFD
:103E400051E06CE170E08FE190E00E94DB0F19C05F
:103E5000109276021092750214C08D3391058CF089
:103E600063E070E00E94FC208B01892B51F460E03C
:103E7000C80145970E94840C61E0C80144970E94E4
:103E8000840C80917502909176020196909376024F
:103E9000809375020E945C0C882309F46BC020E4B7
:103EA00040E860E070E080E090E00E94451100E0B2
:103EB00010E021E0A80162E170E080EF92E00E9452
:103EC000C5090F5F1F4F0034110599F700E010E09E
:103ED00021E0A8016BE670E080EF92E00E94C50946
:103EE0000F5F1F4F0034110599F721E040E050E0CB
:103EF00064E170E08DE790E00E94610E21E040E017
:103F000050E06EE170E08DE790E00E94610E40911C
:103F100067025091680224E06EE170E08DE690E067
:103F20000E94610EEE24E39403E025E046E052E0B7
:103F300066E170E084E090E00E94DB0F80E00E9488
:103F40003D0D109266021092650210926802109266
:103F500067021092690283E080936A020E943D0D1D
:103F60000E949D0ED0926C02C0926B02109276025B
:103F70001092750284E093E00E94CC0780E090E00C
:103F8000892B09F4FFC80E940000F6C81092A00215
:103F90000E5F1F4F10939C0200939B028CE390E0F6
:103FA00090939E0280939D0280919F0290E00196E3
:103FB0006FE070E00E94FC2080939F0281708093EC
:103FC000A80257CA61E0600F8E2D0E945512811120
:103FD00008CB2091A002E7E4F2E08581811113C0B3
:103FE00080819181E816F90621F00196E816F9061C
:103FF00051F4828193810817190721F0019608175F
:10400000190709F428E13A9632E0E536F30729F773
:104010002093A002E9CAD8011896ED91FC91199756
:10402000C80109951092740245CBBFE7B093A20274
:104030008091A0028F3F21F4B1E0B093A002B6CBF3
:10404000811106C060E08BE992E00E94440DF4CF3C
:1040500060E08BE992E00E94600DEECF1092A90221
:104060001092A4021092A3029091A802911106C08E
:1040700081E08093A70283E190E004C08093A702CF
:1040800084E690E09093A6028093A50212CC8091E2
:10409000EA029091EB02803491051CF081E080935C
:1040A000ED02EBEAF2E080E09191911103C08F5FA5
:1040B0008233D1F78093E8028091E90290E0019683
:1040C000817099278093E9028091E2029091E30246
:1040D0009093DF028093DE024091E6025091E70266
:1040E0009C01240F351F3093E3022093E2022091BC
:1040F000E4023091E5023093E1022093E002609106
:10410000EC02662309F4F4CC1092EC0266277727C0
:10411000641B750B7093E7026093E6022D5F3F4FBF
:104120003093E5022093E402841B950B9093E30205
:104130008093E202DDCCE8E1F7E01382128288EEA0
:1041400093E0A0E0B0E084839583A683B78386E202
:1041500092E0918380838FEF9FEF95878487E0EFD4
:10416000F2E01382128286E392E0918380838CE3F3
:10417000868380E181871086178216861786108ACB
:10418000118A128A109205071092040710920707ED
:104190001092060781E0809308070895991B79E043
:1041A00004C0991F961708F0961B881F7A95C9F7C7
:1041B0008095089587FB082E062687FD819567FD6B
:1041C00061950E94CE200EF4919507FC819508958B
:1041D000AA1BBB1B51E107C0AA1FBB1FA617B7072D
:1041E00010F0A61BB70B881F991F5A95A9F7809549
:1041F0009095BC01CD01089597FB072E16F400940D
:1042000007D077FD09D00E94E82007FC05D03EF4D6
:10421000909581959F4F0895709561957F4F089572
:10422000EE0FFF1F0590F491E02D09940E946B2181
:10423000B7FF0895821B930B089581E090E0F894F6
:104240000C947A21F999FECF92BD81BDF89A9927F5
:1042500080B50895052E97FB1EF400940E9441211D
:1042600057FD07D00E94492107FC03D04EF40C945F
:10427000412150954095309521953F4F4F4F5F4FCD
:10428000089590958095709561957F4F8F4F9F4FC2
:104290000895A1E21A2EAA1BBB1BFD010DC0AA1F87
:1042A000BB1FEE1FFF1FA217B307E407F50720F09F
:1042B000A21BB30BE40BF50B661F771F881F991F1A
:1042C0001A9469F760957095809590959B01AC0163
:1042D000BD01CF010895A29FB001B39FC001A39F6C
:1042E000700D811D1124911DB29F700D811D11242F
:0842F000911D0895F894FFCF21
:1042F800A500930083007B00FFFFE8030000E803AC
:104308000000E8030000E8030000E8030000E803F9
:104318000000E8030000E8030000E803FFFF7B005B
:104328000000FFFF7800B40059013A021B03C003E4
:10433800FC03C0031B033A025901B400FFFF7800D5
:10434800F1003A02FC03BE05080780070807BE050E
:10435800FC033A02F100FFFF1003E402BA029302E1
:104368000000E0067D062006C80575052705DD0462
:10437800970455041704DC03A4032705DD049704F8
:104388005504FFFF000000000000B8072D080000DA
:10439800B807FFFF0001463401000000009A01142D
:1043A8000000000000006801140000000000004E3A
:1043B8000114000100000000340114000100000095
:1043C800002E01140001000000000A01640600002C
:1043D80000000000E1000000000000FFFFFFFF01F7
:1043E8000000000002040505050606060302020196
:1043F80001342C241C17120D0A070532281E16102A
:104408000C0804020100000102010100030101017E
:10441800000200000000D20E4F0F350FF30E110FEF
:10442800E80E00000000EC09D00400C18081000003
:02443800000082
:00000001FF
