:100000000C94A7040C94CF040C94CF040C94CF044C
:100010000C94CF040C94CF040C94CF040C94CF0414
:100020000C94CF040C94CF040C9472210C940420F3
:100030000C94CF040C94CF040C94CF040C94CF04F4
:100040000C94CF040C941C190C94CF040C94CF0482
:100050000C94CF040C94CF040C94CF040C94151B77
:100060000C94CF040C94CF040C94CF040C94CF04C4
:100070000C94CF040C94CF040C94CF040C94CF04B4
:100080000C948F190C94CF040C94CF040C94CF04CF
:100090000C94CF040C94CF040C94CF040C94CF0494
:1000A0000C94CF040C94CF040C94CF04441C491C32
:1000B0004E1C581C621CAC1CAC1CAC1C6C1C761C72
:1000C000801C8A1C971CAC1C9F1CCD1CD01CBF1C08
:1000D000C31CC91CF11CF11CF11CD41CD81CDC1C59
:1000E000E21CE61CF11CEC1C47414D45204F5645D7
:1000F0005200F8FC24243C18003D3D0000183C242C
:10010000242400183C24243C1800041C3820381CEB
:100110000410382A2A2E3C20183C2424273F200093
:100120001C3E2A2A2E0C00043C3E0202242E2A2ABF
:100130003A1201050606050407040502060607062D
:10014000060502053C3E1F0F0F1F3E3C0005030045
:10015000060600070006060006060700050300065F
:100160000605070006060606060507030705060539
:10017000000500050305060503060502050603063E
:100180000306030603060306000306030000060336
:1001900006003F213F003F003D252725253F07045E
:1001A0003F27253D3F253D01013F3F253F27253F77
:1001B000F0F89C8E8783878E9CF8F00000FEFF038A
:1001C00003030303070EFCF80000FEFF0303030311
:1001D00003070EFCF80000FFFF0000000000000015
:1001E000FFFF0000FEFF8383838383C7EE7C38001C
:1001F00000F8FC0E07030303070EFCF800003F7F26
:10020000E0C08080C0E07F3FFFFF010101010101EC
:1002100001FFFF0000FFFF0C0C0C0C1C3E77E3C13C
:1002200000007FFFC0C0C0C0C0E0703F1F00001FC3
:100230003F70E0C0C0C0E0703F1F00007FFFC1C141
:10024000C1C1C1E3773E1C00001F3F70E0C0C0C0C9
:10025000E0703F1F000000000001FFFF01000000F0
:1002600000000000003E5B4F5B3E3E6B4F6B3E1C50
:100270003E7C3E1C183C7E3C181C577D571C1C5E67
:100280007F5E1C00183C1800FFE7C3E7FF0018243E
:100290001800FFE7DBE7FF30483A060E26297929E8
:1002A00026407F050507407F05253F5A3CE73C5A1D
:1002B0007F3E1C1C08081C1C3E7F14227F22145FFA
:1002C0005F005F5F06097F017F006689956A606055
:1002D00060606094A2FFA29408047E040810207E4F
:1002E000201008082A1C08081C2A08081E101010D4
:1002F000100C1E0C1E0C30383E3830060E3E0E061A
:10030000000000000000005F00000007000700146C
:100310007F147F14242A7F2A12231308646236492B
:100320005620500008070300001C22410000412213
:100330001C002A1C7F1C2A08083E08080080703018
:100340000008080808080000606000201008040287
:100350003E5149453E00427F40007249494946218D
:1003600041494D331814127F1027454545393C4A01
:100370004949314121110907364949493646494918
:10038000291E000014000000403400000008142260
:1003900041141414141400412214080201590906CE
:1003A0003E415D594E7C1211127C7F494949363ECF
:1003B000414141227F4141413E7F494949417F09B5
:1003C0000909013E414151737F0808087F00417FC0
:1003D00041002040413F017F081422417F404040BE
:1003E000407F021C027F7F0408107F3E4141413E56
:1003F0007F090909063E4151215E7F0919294626D8
:100400004949493203017F01033F4040403F1F20DB
:1004100040201F3F4038403F6314081463030478B2
:1004200004036159494D43007F41414102040810D2
:1004300020004141417F040201020440404040400D
:10044000000307080020545478407F28444438387B
:1004500044444428384444287F38545454180008ED
:100460007E090218A4A49C787F0804047800447DC7
:1004700040002040403D007F1028440000417F4064
:10048000007C047804787C080404783844444438B8
:10049000FC1824241818242418FC7C080404084898
:1004A0005454542404043F44243C4040207C1C20E9
:1004B00040201C3C4030403C44281028444C909044
:1004C000907C4464544C440008364100000077009E
:1004D00000004136080002010204023C2623263CAB
:1004E0001EA1A161123A4040207A38545455592136
:1004F0005555794121545478412155547840205420
:100500005579400C1E52721239555555593954546B
:10051000545939555454580000457C410002457DDA
:10052000420001457C40F0292429F0F0282528F0DC
:100530007C545545002054547C547C0A097F493230
:10054000494949323248484832324A4848303A41AB
:1005500041217A3A42402078009DA0A07D39444450
:1005600044393D4040403D3C24FF2424487E4943DB
:10057000662B2FFC2F2BFF0929F620C0887E09034C
:1005800020545479410000447D413048484A323873
:100590004040227A007A0A0A727D0D19317D26299F
:1005A000292F28262929292630484D402038080897
:1005B000080808080808382F10C8ACBA2F102834CB
:1005C000FA00007B000008142A142222142A1408BE
:1005D0009500220095AA005500AAAA55AA55AA007E
:1005E0000000FF00101010FF00141414FF00101082
:1005F000FF00FF1010F010F0141414FC001414F796
:1006000000FF0000FF00FF1414F404FC1414171082
:100610001F10101F101F1414141F00101010F000D2
:100620000000001F101010101F10101010F010000C
:100630000000FF101010101010101010FF1000001C
:1006400000FF140000FF00FF00001F10170000FC57
:1006500004F414141710171414F404F40000FF0029
:10066000F714141414141414F700F71414141714B2
:1006700010101F101F141414F4141010F010F000B8
:10068000001F101F0000001F14000000FC140000D9
:10069000F010F01010FF10FF141414FF14101010BD
:1006A0001F00000000F010FFFFFFFFFFF0F0F0F070
:1006B000F0FFFFFF0000000000FFFF0F0F0F0F0F04
:1006C00038444438447C2A2A3E147E02020606023C
:1006D0007E027E0263554941633844443C04407EB7
:1006E000201E2006027E020299A5E7A5991C2A4930
:1006F0002A1C4C7201724C304A4D4D3030487848BB
:1007000030BC625A463D3E494949007E0101017EA6
:100710002A2A2A2A2A44445F444440514A444040F9
:10072000444A51400000FF0103E080FF0000080838
:100730006B6B083612362436060F090F06000018B8
:10074000180000001010003040FF0101001F0101DF
:100750001E00191D1712003C3C3C3C00000000002C
:1007600006011501260137014A015D017201880168
:100770009F01B801D201EE010B022A024B026E0268
:100780009302BA02E40210033F037003A403DC03E4
:10079000170455049704DD0427057505C8052006D0
:1007A0007D06E0064907B8072D08A9082D09B909F3
:1007B0004D0AEA0A900B400CFA0CC00D910E6F0F17
:1007C0005A1053115B1272139A14D4152017801803
:1007D000F519801B231DDE1EB420A622B524E426B5
:1007E0003429A72B402E0031EA330037453ABC3D6F
:1007F00068414C456B49C84D68524F57805C006258
:1008000010111213151617181A1C1D1F2123252746
:10081000292C2E3134373A3E4145494E52575C62BD
:10082000686E757B838B939CA5AFB9C4D0DCE9F768
:100830000301D5F08D14A1C881CFD9F1AF200014E8
:10084000021302120215020702080204010C01063B
:1008500001000000000200090F0000030401000C69
:100860000000000000000000000000000000000088
:1008700000040802011040804010204080408008A1
:10088000020401804020100201108010204040200E
:100890000404040404030405020202020403020225
:1008A000020206060606060604040202020404000A
:1008B000000000250028002B002E00310000000061
:1008C00000240027002A002D00300012010002EF52
:1008D00002014041233680000101020301120100A0
:1008E0000200000040412336800001010203014163
:1008F000726475696E6F204C4C430041726475627E
:100900006F790004030904080B00020202010009C8
:10091000040000010202000005240010010524016A
:1009200001010424020605240600010705810310C5
:10093000004009040100020A00000007050202400D
:10094000000007058302400000008C1203231124DD
:100950001FBECFEFDAE0DEBFCDBF12E0A0E0B1E016
:10096000EAEDF8E402C005900D92AC31B107D9F779
:1009700027E0ACE1B2E001C01D92AC34B207E1F770
:1009800019E0CEE4D9E004C02297FE010E94402481
:10099000CA34D107C9F70E94AF1D0C946B240C9484
:1009A0000000FF920F931F93CF93DF93EC01F62E7D
:1009B0008A819B81FC013397019662E070E00E947E
:1009C000E92328813981820F931F2F2DAF01BC01AC
:1009D0008FE992E00E9402138A819B81FC01329789
:1009E00097FD01969595879502E010E0B8010E9469
:1009F000E92328813981820F931F2F2DAF01BC017C
:100A00008FE992E00E9402138A819B81FC01319759
:100A10000196B8010E94E92328813981820F931F32
:100A20002F2DAF01BC018FE992E00E940213EA81F1
:100A3000FB81CF01F7FD01969595879562E070E007
:100A40000E94E92328813981820F931F2F2DAF0146
:100A5000BC018FE992E0DF91CF911F910F91FF9040
:100A60000C9402131F93CF93DF93EC01162F8A810E
:100A70009B819C012150310997FD019695958795A1
:100A800062E070E00E94E923A901481B590B6881CC
:100A900079816F5F7F4F212F8FE992E00E940213CF
:100AA0008A819B81FC01319797FD019695958795E9
:100AB00062E070E00E94E923AF01481B590B688196
:100AC0007981212F8FE992E00E9402134A815B8194
:100AD000688179816F5F7F4F212F8FE992E00E94BB
:100AE00002134A815B8168817981212F8FE992E02D
:100AF000DF91CF911F910C9402131F93CF93DF933B
:100B0000EC01162F8A819B81FC013297019697FD9B
:100B100001969595879562E070E00E94E92328810F
:100B20003981820F931F212FAF01BC018FE992E021
:100B30000E9402134A815B81415051096881798189
:100B40006F5F7F4F212F8FE992E00E9402134A814D
:100B50005B814150510968817981212F8FE992E0B1
:100B60000E940213EA81FB81CF01F7FD0196959562
:100B7000879562E070E00E94E92328813981820F25
:100B8000931F212FAF01BC018FE992E0DF91CF913C
:100B90001F910C940213AF92BF92CF92EF920F93DA
:100BA0001F93CF93DF93EC015B01142FE12C06E040
:100BB00023E0AB01BC018FE992E00E947813812F02
:100BC0006AE00E94BB23892F90E09C01220F331F13
:100BD000280F391F2E563E4FCC24C394F5E0EF2E3C
:100BE00003E0A501BE018FE992E00E94B213DF91FC
:100BF000CF911F910F91EF90CF90BF90AF9008953C
:100C0000AF92BF92CF92DF92EF92FF920F931F931A
:100C1000CF93DF931F92CDB7DEB78B015C0134E039
:100C2000239FA00CB11C1124C50104975C01AAE00C
:100C3000EA2EF12C222391F0CA01B7010E94D5239C
:100C40006B01482FB801C50129830E94CB0594E0B0
:100C5000A91AB108A60129812150ECCF0F90DF918C
:100C6000CF911F910F91FF90EF90DF90CF90BF90A9
:100C7000AF900895FC0187819085892B31F481E044
:100C800090E090878783168215820895FC01278162
:100C900030852130310521F422E030E03087278390
:100CA0000895FC01278130852230310511F410862A
:100CB00017820895CF93DF93EC018F819885019778
:100CC000C1F58E819FEF980F9E83811132C08B8179
:100CD0008E832A81688199818D8131E0380F3D832F
:100CE00042E1249F90011124442737FD4095542F61
:100CF000E62FF92FE80FF11DE80FF11D60817181DA
:100D000083EA92E00E94A2188D8128819981E22FC6
:100D1000F92FE80FF11DE80FF11D8081918197FFF8
:100D200008C08C81811104C082E090E098878F8395
:100D30001D82DF91CF9108951F93CF93DF93182FDA
:100D4000EB018881882339F0612F8FE992E00E94BE
:100D5000AD1681110DC0888181110DC0612F8FE901
:100D600092E00E949B16882331F081E0888303C0C3
:100D7000188281E001C080E0DF91CF911F9108953A
:100D8000CF93DF93CDB7DEB729970FB6F894DEBFC8
:100D90000FBECDBF9C01862F99E0E1EEF1E0DE01B0
:100DA000119601900D929A95E1F769E00E94BB239C
:100DB000E1E0F0E0EC0FFD1FE90FF11D808143E061
:100DC0008402C00111240796F90142E351E05193D6
:100DD0004150E9F74CE150E0F90154AB43AB41E03D
:100DE00050E054AF43AF4DE150E050AF47AB96AB4E
:100DF00085AB92AF81AFFF9611821082F90115AEDB
:100E000016AEEF5BFF4F1082319610823196108242
:100E10003196108282E3F90182AB29960FB6F894DD
:100E2000DEBF0FBECDBFDF91CF910895EF920F933C
:100E3000FC0185AD6AE00E94BB2324E0281B45A984
:100E400056A986E0289F400D511D112463A974A95D
:100E500087E0989F600D711D1124E12C03E025E0CF
:100E60008FE992E00E9478130F91EF9008958F928E
:100E70009F92AF92BF92CF92EF920F93CF93DF9357
:100E8000EC018DADFE01E80FF11D9081992309F46D
:100E90005CC06AE00E94BB2344E0481BAFA8B8AC2A
:100EA00087E0989FA00CB11C112489AC9AAC86E015
:100EB000489F800C911C1124433050F42EAD4130DA
:100EC00088F485E0289F9001112428573E4F10C0D8
:100ED000453070F42EAD85E0289F900111242C58E8
:100EE0003E4F06C085E0289F9001112422583E4FB6
:100EF000CC24C394B3E0EB2E05E0A401B5018FE947
:100F000092E00E94B21384E1A816B1042CF48BADD8
:100F10009CAD97FF0FC009C086E6A816B10454F037
:100F20008BAD9CAD181619062CF481E0FE01EF5B29
:100F3000FF4F8083EF9628813981C4010396821781
:100F400093070CF4C90199838883DF91CF910F91A6
:100F5000EF90CF90BF90AF909F908F900895EF92B9
:100F60000F93FC01DC01AC5BBF4F3C91832F6AE027
:100F70000E94BB2324E0281B85AD381728F063A905
:100F800074A945A956A904C067A970AD41AD52AD79
:100F900086E0289F400D511D112487E0989F600D29
:100FA000711D1124E12C03E025E08FE992E00E94FD
:100FB00078130F91EF900895EF920F93FC01DC01ED
:100FC000AC5BBF4F8C916AE00E94BB2324E0281BDE
:100FD00041AD52AD86E0289F400D511D112467A9F7
:100FE00070AD87E0989F600D711D1124E12C03E026
:100FF00025E08FE992E00E9478130F91EF90089519
:10100000CF92EF920F93FC01DC01AC5BBF4F8C9150
:101010006AE00E94BB2324E0281B41AD52AD86E06C
:10102000289F400D511D112467A970AD87E0989F3E
:10103000600D711D1124CC24C39403E0E02E05E063
:101040002FE631E08FE992E00E94B2130F91EF900A
:10105000CF900895FC0185AD8F5FDF01823338F4B6
:10106000A80FB11D9C919923B9F385AF3FC0DF96BE
:101070008D919C91803491052CF081E0DF01AE5B75
:10108000BF4F8C93DF0180E09D91911103C08F5F72
:101090008233D1F785AF86AD90E0019681709927B4
:1010A00086AF27A930AD34AB23AB83AD94ADA90196
:1010B000480F591F50AF47AB41AD52AD56AB45AB92
:1010C000DF01AF5BBF4F6C91662381F01C926627F6
:1010D0007727681B790B74AF63AF4D5F5F4F52AFDB
:1010E00041AF281B390B30AF27AB08950895FC01A1
:1010F000E60FF11D1082FC01EC5BFF4F608331971E
:1011000028E12083FC0122A9215022AB08952F92CF
:101110003F924F925F926F927F928F929F92AF9287
:10112000BF92CF92DF92EF92FF920F931F93CF93D4
:10113000DF93FC019B0103A914A9C7A8D0ACB60199
:101140000C151D050CF4B801E5A8F6A8A1ACB2ACCD
:10115000C501EA14FB040CF4C701621773070CF015
:1011600078C06D5B7F4F621773070CF472C08417F1
:1011700095070CF06EC04A96841795070CF469C069
:1011800055AC3E2EDF0164E0662E712C76E0272EF2
:101190004A2E4318451440F58D918823C9F3842DB8
:1011A0006AE00E94BB23B601C7E09C9F600D711DE1
:1011B00011242617370764F36C5F7F4F621773079C
:1011C0003CF34301881A9108289CE001299CD00D2A
:1011D0001124CA0DDB1D4C175D07D4F22296C417EB
:1011E000D507B4F2842D36C08AE0D82EC4E0D0E012
:1011F00096E0C92E81E3851560F1DF01A50DB11DD3
:101200008C91882321F1852D6D2D0E94BB23D8015F
:1012100067E0969FA00DB11D11242A173B07BCF073
:101220001496A217B3079CF0DE01A81BB109CA9E51
:10123000C001CB9E900D11248E0D9F1D481759079C
:1012400034F002968417950714F0852D03C053944B
:10125000D1CF8FEFDF91CF911F910F91FF90EF9042
:10126000DF90CF90BF90AF909F908F907F906F90C6
:101270005F904F903F902F9008950F931F93CF93BF
:10128000DF93EC018C010D5B1F4FF80180818130F1
:10129000D9F0883179F081111DC0CE010E94160766
:1012A000CE010E943707CE01DF91CF911F910F91A0
:1012B0000C942A08CE010E94AF07CE010E940008BC
:1012C000F8018081815008C0CE010E94DC07F8013E
:1012D000108203C08150F8018083DF91CF911F916C
:1012E0000F910895FC0180918C028830E8F0808194
:1012F00091819C012F5F3F4F318320838D3D95402D
:1013000008F408951682118210828581811105C02A
:1013100081E0848383E190E004C08FEF848384E6DE
:1013200090E09383828308950895CF92EF920F9374
:10133000FC0162817381CC24C394E3E0EE2E07E0CC
:1013400028E631E040E050E08FE992E00E94B213DD
:101350000F91EF90CF900895EF920F93FC0162816F
:101360007381E12C03E027E040E050E08FE992E058
:101370000E9478130F91EF900895CF93DF93EC01C3
:101380000E94AC092C818A819B81820F911D27FDCF
:101390009A959B838A8344978035910510F081E06C
:1013A0008E83CE01DF91CF910C9495090F931F93FB
:1013B000CF93DF931F92CDB7DEB78C01FC01118272
:1013C000108288E78683C80169830E94AC0969811D
:1013D000F80167830F90DF91CF911F910F910895CE
:1013E000FC012681211115C04330510590F4228162
:1013F00033816217730768F0295F3F4F62177307E5
:1014000040F41182108228E726830E94AC0981E013
:10141000089580E00895CF92EF920F93CF93DF93DA
:10142000EC018E81882321F154F48F3FC9F5CE0160
:10143000DF91CF910F91EF90CF900C947209813092
:1014400051F1883769F52F8187E0289F9001112499
:10145000245B3E4F6A817B81CC24C394F3E0EF2E62
:1014600007E040E050E08FE992E00E94B21318C01C
:10147000888199818330910520F40196998388832E
:1014800012C019821882CE01DF91CF910F91EF9097
:10149000CF900C94BD09CE010E94AC098FEF02C021
:1014A0008E8181508E83DF91CF910F91EF90CF90FD
:1014B0000895CF92EF920F93CF93DF93C0E2D0E0E5
:1014C000CC24C394A6E0EA2E08E024E431E044E30F
:1014D00050E0BE018FE992E00E94B2136296C836D6
:1014E000D10571F7DF91CF910F91EF90CF900895D3
:1014F000DC011696ED91FC9117970994EF92FF92FB
:101500000F931F93CF93DF9300D0CDB7DEB78C013D
:10151000FC0137AD335020E0E62EFF24E7FCF094C9
:10152000F2E0EF0EF11C432F420F552747FD509577
:10153000B701C80129833A830E94870829813A812B
:1015400087FF03C02650223E71F70F900F90DF9166
:10155000CF911F910F91FF90EF900895FC01862F7E
:101560008B3030F515826AE00E94BB2320919102F6
:101570003091920247E0949F200D311D11242F5F7E
:101580003F4F3183208344E050E0481B510986E0FF
:10159000849F9001859F300D11248091930290913A
:1015A0009402280F391F245F3F4F3383228308950D
:1015B000A82FB0E0A05BBD4F9C91992399F28A506F
:1015C000CFCF609197020C94AE0AFC012091970254
:1015D000822F90E0CC9662E370E00E94E923BC0188
:1015E000DC01A65ABD4F8C91882319F0CF010C94D1
:1015F000AE0A0895CF93DF93EC01609129026E5FEC
:101600008AE592E00E947E0A87FD06C0682FCE011F
:10161000DF91CF910C94AE0ADF91CF910895FC0138
:10162000148281E1858380E490E09383828381ED5D
:1016300094E09783868381EE9AE09187808708956E
:101640001F93CF93DF93EC01162F4A815B81688152
:101650007981212F8FE992E00E9402134A815B81F8
:10166000688179816F5F7F4F212F8FE992E00E941F
:1016700002134A815B814150510968817981212F90
:101680008FE992E00E9402134A815B814150510927
:10169000688179816F5F7F4F212F8FE992E0DF9121
:1016A000CF911F910C940213CF93DF93EC014A81E9
:1016B0005B81CA01C597059710F080E024C068815E
:1016C0008FE992E00E94291381111CC068816F5F2D
:1016D0004A818FE992E00E942913811113C04A8147
:1016E000415068818FE992E00E94291381110AC05C
:1016F0004A81415068816F5F8FE992E00E9429130F
:101700008823D9F281E0DF91CF910895CF93DF93C1
:10171000EC018C8184301CF48F5F8C831DC01C8293
:1017200060E0CE010E94780A8A819B8102969B83A9
:101730008A838134910514F081E106C0CE010E94B4
:10174000540B882319F082E18D8306C061E0CE013D
:10175000DF91CF910C94780ADF91CF910895209179
:1017600020022F5F20932002DC0114963C911497F5
:101770003F5F14963C9314973D334CF0253138F07D
:101780001896ED91FC9119970995109220020895F1
:10179000CF92EF920F93FC0142815381808191811E
:1017A0000197C62EB3E0EB2E03E021E431E0BC014B
:1017B0008FE992E00E94B2130F91EF90CF900895BD
:1017C000CF93DF93EC014A815B81CA01C5970597EE
:1017D00010F080E018C08091990290919A028417CD
:1017E0009507BCF768818FE992E00E942913811167
:1017F00009C04A814F5F68818FE992E00E942913F6
:10180000882339F381E0DF91CF910895FC01858130
:1018100081110AC082819381029793838283181673
:10182000190614F088E1858308951F93CF93DF9301
:10183000EC01162F4A815B8168817981212F8FE924
:1018400092E00E9402134A815B814F5F5F4F688183
:101850007981212F8FE992E0DF91CF911F910C9434
:101860000213EF92FF920F931F93CF93DF93EC013C
:101870007B018A018D818F3F11F580919D0281113D
:101880001EC068E08FE992E00E949B16811107C09C
:1018900064E08FE992E00E949B16882381F01D820C
:1018A000F982E8821B830A838C8190E001966FE0C5
:1018B00070E00E94E9238C83817080935702DF914E
:1018C000CF911F910F91FF90EF900895DC01149636
:1018D000EC91ED3028F4F0E0E151FE4F8081089565
:1018E00081E008958F929F92AF92BF92CF92DF9244
:1018F000EF92FF920F931F93CF93DF93CDB7DEB795
:1019000029970FB6F894DEBF0FBECDBF8C0185E0DE
:10191000EAEEF1E09E012F5F3F4F7901D90101907E
:101920000D928A95E1F785E08E838AE0882E8F827A
:101930008FE088878EE18987D80115968C9188235E
:10194000C9F024F48F3F09F4A6C0A1C0813009F486
:1019500096C0883109F09BC060E0C8010E94150C58
:1019600061E0C8010E94C80BD80115968C911597AB
:1019700081508FC060E0C8010E94150CC8010E9410
:10198000060CF801A280B380C080D180A501B60109
:101990008AE592E00E948708982E87FD14C0682F80
:1019A0008AE592E00E947708892D682D0E94C7235E
:1019B000F701E81BF10987FDF395F4808FEFD8015B
:1019C00015968C9353C0A501B60182E592E00E9462
:1019D000F009882389F0C8010E94660CF82E682F50
:1019E00082E592E00E94D609FE01EF0DF11DF6801E
:1019F0008FEFF80185833AC0C8010E94E00B88236D
:101A000029F088E1D80115968C932FC069E372E024
:101A1000E4E3F2E048E1DB018C9181111FC0D801C1
:101A20008D919C91208131818217930729F02F5F3E
:101A30003F4F8217930791F4D80112968D919C9194
:101A40001397228133818217930729F02F5F3F4F2D
:101A50008217930719F4D80115964C93665F7F4F50
:101A60003A96B2E0E235FB07B1F6F12CF801858138
:101A7000811112C061E0C8010E94150C0DC060E028
:101A8000C8010E94C80B8FEFF801858304C0815004
:101A9000D80115968C93F12C8F2D29960FB6F894BA
:101AA000DEBF0FBECDBFDF91CF911F910F91FF9091
:101AB000EF90DF90CF90BF90AF909F908F90089560
:101AC000FC0180E290E09183808311868FEF808714
:101AD0008EE0878312860895EF920F93FC01608158
:101AE0007181E12C03E025E04DE350E08FE992E0C5
:101AF0000E9478130F91EF900895CF92EF920F9379
:101B0000FC0160817181CC24C39493E0E92E05E04F
:101B10002CE331E04DE350E08FE992E00E94B213F4
:101B20000F91EF90CF900895CF93DF93EC010E9437
:101B30006C0D60E48FE992E00E949B16882329F0E7
:101B40008881998101969983888360E28FE992E088
:101B50000E949B16882329F0888199810197998397
:101B60008883888199818331910530F0873691058A
:101B700028F086E690E002C083E190E099838883B4
:101B8000CE01DF91CF910C947D0DCF93DF93EC01CB
:101B90008FE78A878885882341F0883159F460E08F
:101BA000CE0103960E94C80B05C060E0CE010396EB
:101BB0000E94150C81E08887DF91CF9108954E53E4
:101BC00051094230510570F4FC0180819181681700
:101BD000790740F0059621E08617970708F420E082
:101BE000822F089580E00895CF92EF920F93CF93C4
:101BF000DF93EC018A85882349F0813001F560E0AC
:101C0000CE0103960E94150C8FEF3FC0898581118C
:101C100003C081E089873AC01986CE010E94940DE5
:101C2000688179816E5F7F4F4CE350E0CE0103966F
:101C3000DF91CF910F91EF90CF900C94310CCE01AA
:101C40000E946C0D8A85992787FD909595958795BB
:101C50009595879562E070E00E94E92345E0489FF2
:101C60009001499F300D11242E5C3E4F688179818F
:101C7000CC24C39443E0E42E05E04DE350E08FE92B
:101C800092E00E94B2138A8581508A87DF91CF91BA
:101C90000F91EF90CF900895CF93DF93EC018D815A
:101CA0008823C9F01CF48F3F51F032C0813041F1DC
:101CB000823171F561E0CE010E94200B29C0CE0176
:101CC0000E94AF0B8D81811126C061E0CE01DF91B2
:101CD000CF910C94780ACE010E94860B4A815B81D9
:101CE000688179816F5F7F4F89E292E00E94DF0D0A
:101CF000882389F089E292E0DF91CF910C94C50DA1
:101D000060E0CE010E94200B8FEF8D831C8203C008
:101D10008D8181508D83DF91CF9108954091210273
:101D20005091220224E064E170E08DE690E00C9492
:101D30000006409123025091240224E06EE170E0FD
:101D40008DE690E00C940006482F64E170E08DE091
:101D500090E00C94CB05CF92EF920F93CC24C394D8
:101D600058E0E52E00E422EF30E04CE150E06FE176
:101D700070E08FE992E00E94B2130F91EF90CF9044
:101D800008952F923F924F925F926F927F928F921F
:101D90009F92AF92BF92CF92EF920F931F93CF93E8
:101DA000DF9300D000D0CDB7DEB79C838B83162F96
:101DB00097FD079643E0959587954A95E1F762E090
:101DC00070E00E94E92345E0489F9001499F300D53
:101DD0001124C9018C589E4F9A838983F901E258D6
:101DE000FE4F1F01C90188579E4F2C01AB80BC805C
:101DF00094E1A91AB1085BE1852E912C712C6BEA54
:101E0000662E769C812D1124869541F0813069F4EF
:101E1000C12E23E0E22E05E091010CC0C12E33E07B
:101E2000E32E05E029813A8105C0C12E93E0E92E19
:101E300005E09201A501B4018FE992E00E94B2137E
:101E40007394E5E08E0E911CF3E0AF0EB11C28E018
:101E50007212D7CFAB80BC8032E0A31AB10803E482
:101E6000802E912C86E0682E712CC30163E070E017
:101E70000E94E9236115710549F06130710569F42B
:101E8000C12EA3E0EA2E05E091010CC0C12EB3E003
:101E9000EB2E05E029813A8105C0C12EF3E0EF2E3B
:101EA00005E09201A501B4018FE992E00E94B2130E
:101EB00081E0681A710895E0890E911CE3E0AE1A82
:101EC000B108FFEF6F167F0681F661EA70E02B81A3
:101ED0003C81621B730BC12EE3E0EE2E07E028E687
:101EE00031E04CE150E08FE992E00E94B2136B8147
:101EF0007C816352710928E631E04FE150E08FE9BF
:101F000092E00E94B2130F900F900F900F90DF910C
:101F1000CF911F910F91EF90CF90BF90AF909F9076
:101F20008F907F906F905F904F903F902F9008958B
:101F3000CF92EF920F9301E020E440E050E062E1A5
:101F400070E08FE992E00E94481320E440E050E006
:101F50006BE670E08FE992E00E94481321E040E0D8
:101F600050E064E170E08DE790E00E94000621E01F
:101F700040E050E06EE170E08DE790E00E940006E6
:101F80000E94990ECC24C39473E0E72E05E02CE365
:101F900031E046E150E064E070E08FE992E00E94B9
:101FA000B21380E00F91EF90CF900C94A40E10929A
:101FB0002202109221021092240210922302109207
:101FC000250283E08093260208956FE172E088E0A5
:101FD0000E949C06882319F00E94BE1609C06EE17B
:101FE00072E084E00E949C06882321F00E94CC16B7
:101FF00081E0089580E00895CF93DF9384E392E039
:102000000E940F0BC4E4D2E081ED94E099838883B1
:1020100090933B0280933A028EE392E00E940F0B72
:1020200082E395E0998388838AEF9AE09093470250
:102030008093460288E492E00E940F0B8DE795E0C2
:1020400090934F0280934E0285EE9AE09093510256
:1020500080935002DF91CF910895EF920F93E12C7E
:1020600000E428E540E050E063E170E08FE992E0B1
:102070000E94781389E292E00E94600D609125022F
:102080008AE592E00E94C00610925302109252021A
:102090008FEF809358020E94590A0F91EF900C9491
:1020A000FC0FCF93DF9389E292E00E94F40D8091C0
:1020B000330281113DC08CE292E00E94720C8823B1
:1020C00009F12091210230912202C82FD0E0263957
:1020D000310564F42C0F3D1F273931053CF0809108
:1020E00026028F5F809326020E94A40E2091210277
:1020F000309122022C0F3D1F3093220220932102A7
:102100000E948E0E84E392E00E944C0E8EE392E0D9
:102110000E944C0E88E492E00E944C0E82E592E010
:102120000E940B0A8AE592E0DF91CF910C943D0961
:10213000DF91CF910895CF93DF9380919D02882303
:1021400019F08731B9F021C090918C0280911B0168
:10215000E4E0F1E0AEE0B1E02191921301C08C9196
:10216000119621E0EE30F207B9F780931B0188E168
:1021700091E008C080913B0190913C01892B49F48A
:1021800084E391E00E943A0604C084E391E00E9457
:10219000510680915802813081F0873729F08111F2
:1021A0001CC08DE391E006C08DE391E00E944606DD
:1021B00086E491E00E943A0610C08DE391E00E940F
:1021C00046068DE391E00E94510686E491E00E946C
:1021D000460686E491E00E945106809133028130E8
:1021E00039F08E3769F48FE491E00E943A0608C016
:1021F0008FE491E00E9446068FE491E00E94510630
:1022000080913102882349F0813091F08F3FA1F411
:102210008BE291E00E9451060FC0809132019091B3
:102220003301892B49F48BE291E00E943A0604C005
:102230008BE291E00E94460688E191E00E945A06F6
:10224000CBE2D1E0CE010E945A06299681E0C83542
:10225000D807C1F7DF91CF910895EF920F93E12C4A
:1022600005E22CE347E150E061E270E08FE992E0A3
:102270000E9478134CE150E065E270E08FE992E053
:102280000E948F1668EE70E08FE992E00F91EF9058
:102290000C94891D8FE992E00E9450158FE992E01D
:1022A0000E94AF136CE38FE992E00E94BA1284E0BF
:1022B00090E090932802809327020895EF920F9365
:1022C000CF93DF938FE992E00E94C312882309F431
:1022D0001EC180912702909128028230910571F0F1
:1022E0002CF40097D1F1019761F009C18330910579
:1022F00009F46EC0049709F48AC001C10E942D1030
:1023000050C00E945110809133028F3F21F41092EF
:1023100028021092270280918C0281110FC08091B7
:102320009D0281110BC0809125028F5F8093250251
:1023300082E090E0909328028093270280919C0293
:10234000882341F00E942D1183E090E090932802B1
:10235000809327020E949B10D2C080912602815058
:10236000809326020E94A40E89E292E00E946C0DE6
:1023700089E292E00E94600D60E084E392E00E94B6
:10238000780A60E08EE392E00E94780A60E088E4D8
:1023900092E00E94780A0E94FC0F80912602882316
:1023A00019F081E090E028C00E942D118091210257
:1023B000909122022091230230912402281739079C
:1023C00024F4909324028093230283E090E014C0CD
:1023D00080911C0290911D029C012F5F3F4F309312
:1023E0001D0220931C02893C91055CF010921D0295
:1023F00010921C0284E090E09093280280932702C0
:102400007EC00E94E50F882309F479C066C08091E0
:102410001C0290911D028E31910509F154F48A300D
:102420009105E9F08431910571F081309105F9F45D
:102430000AC08233910599F0883522E0920791F025
:1024400088329105A1F4E12C00E420E840E050E05E
:1024500060E070E08FE992E00E94781324C00E944F
:10246000AB0E21C010921D0210921C021CC08D33B5
:102470009105CCF0C3E0D0E0BE010E94E9239B01AE
:10248000892B89F460E0C90145970E94C10E8091B3
:102490001C0290911D02BE010E94E923CB0161E064
:1024A00044970E94C10E80911C0290911D020196DA
:1024B00090931D0280931C020E94E50F8823F9F07F
:1024C000E12C00E420E840E050E060E070E08FE9BB
:1024D00092E00E9478130E94980F0E94D70F80917B
:1024E00026020E94A40E0E948E0E82E090E090933D
:1024F00028028093270210921D0210921C028FE97D
:1025000092E0DF91CF910F91EF900C949816DF91AC
:10251000CF910F91EF9008958FE992E00C94901273
:10252000CF93DF93EC0188E092E0998388831B824C
:102530001A82CE010E94BA1980E092E099838883C2
:102540008CE38E8380E1898718861F821E861F8612
:10255000188A198A1A8AFE01EC5EFB4F11821082DA
:10256000329611821082C85EDB4F81E08883DF9152
:10257000CF910895FC01668370E088EE93E00E949D
:10258000E923618708950F931F93CF93DF93EC01A5
:102590000E945F1BE62F462F572FBC018A89882394
:1025A00051F08A859E2F981B9B8B8F819885019671
:1025B00098878F831A8A0E851F8528893989401745
:1025C00051076207730734F40E1B0230A8F00E9413
:1025D000701A12C089858A019B01080F111D211DE7
:1025E000311D0E871F87288B398B4A875B876C8745
:1025F0007D8781E08A8B01C080E0DF91CF911F91C0
:102600000F9108956038710518F54034510500F5B3
:10261000E42FE695E695E695F0E047705527F695A8
:10262000FE2FEE27F795E795E60FF71FE80FF91F46
:1026300081E090E0042E01C0880F0A94EAF722237B
:1026400019F09489982B03C0809594899823948BD2
:102650000895242F269526952695477030E8239FC8
:10266000800D911D1124860F911DFC01848990E03D
:1026700021E030E0042E02C0220F331F0A94E2F75B
:102680008223932302C0959587954A95E2F7089592
:10269000AF92BF92CF92DF92EF92FF920F93CF93C0
:1026A000DF936C015B017A01E20EF11CEA0157FF36
:1026B0000DC0C0E0D0E00AC0C417D5077CF4202FBD
:1026C000AE01B501C6010E9402132196A70181E463
:1026D000E816F1048CF340E450E0EECFDF91CF91A7
:1026E0000F91FF90EF90DF90CF90BF90AF90089543
:1026F0008F929F92AF92BF92CF92DF92EF920F9301
:102700001F93CF93DF936C015A01102FEB014B0104
:10271000820E911CC815D9054CF40E2D212FA50150
:10272000BE01C6010E9448132196F4CFDF91CF91DC
:102730001F910F91EF90DF90CF90BF90AF909F903F
:102740008F9008954496B62FB111BFEFFC0100247D
:10275000B193B193B193B1930394D1F7089560E02D
:102760000C94A2132F923F924F925F926F927F929E
:102770008F929F92AF92BF92CF92DF92EF92FF9291
:102780000F931F93CF93DF9300D000D01F92CDB74C
:10279000DEB7C982202E312CFB01E20DF31DF7FDBF
:1027A00013C1603871050CF00FC1FA01EE0DF11D77
:1027B000F7FD0AC1403451050CF006C1DA0157FF9C
:1027C00004C0AA27BB27A41BB50BFD01E770FF2798
:1027D000FB83EA83FA0157FD3796DF0113E0B595D5
:1027E000A7951A95E1F7BD83AC8357FF0CC01197ED
:1027F000BD83AC8348E050E0DA01EA81FB81AE1B87
:10280000BF0BBB83AA834E2D469546954695C42E95
:10281000D12C4E2D477019F0FFEFCF1ADF0A490176
:102820004C815D815695542F442757954795480F05
:10283000591F2C813D81F8E06F2E712C8A819B817C
:10284000681A790AC901AC81BD818A1B9B0B8C1562
:102850009D050CF0B9C02830310509F4B5C02F3FF3
:102860009FEF39070CF4A3C0CB0100E010E0DA01C0
:10287000A058BF4F2D01021513050CF098C08038E9
:10288000910509F494C097FD8EC02F3FBFEF3B0721
:1028900009F494C0D801A80DB91D7A01E80EF91EFB
:1028A000E981E13071F4FD01A491B0E00A8002C039
:1028B000AA0FBB1F0A94E2F7F701B488AB29A48BD7
:1028C00028C0F981F11114C0FD01A491EA2FF0E0B4
:1028D0000A8002C0EE0FFF1F0A94E2F7E095F09520
:1028E000D7015496AC905497B12CEA21FB210FC02C
:1028F000FD01A491EA2FF0E00A8002C0EE0FFF1F55
:102900000A94E2F7D7015496BC905497EB2554965D
:10291000EC93AA81BB81AB2B09F445C0273031056C
:1029200009F441C0F801E80DF91DB981B13089F40D
:10293000E491F0E0062C02C0F595E7950A94E2F7E1
:102940007201E80EF91ED7015496BC905497EB29FA
:1029500028C0B981B11115C0E491F0E0062C02C085
:10296000F595E7950A94E2F7E095F0957201E80E87
:10297000F91ED7015496AC905497B12CEA21FB2153
:1029800010C0E491F0E0062C02C0F595E7950A949A
:10299000E2F77201E80EF91ED7015496BC905497E5
:1029A000EB255496EC930F5F1F4F019664CF2F5F7A
:1029B0003F4F820C931C40585F4F44CFAA81BB818C
:1029C000AB2B09F0AFCFEFCF0F900F900F900F9080
:1029D0000F90DF91CF911F910F91FF90EF90DF90BB
:1029E000CF90BF90AF909F908F907F906F905F90AF
:1029F0004F903F902F9008958F929F92AF92BF92E9
:102A0000CF92EF920F931F93CF93DF935C01CEEEA3
:102A1000DFEF18E14C0184E1880E911C20E040E0DA
:102A2000612F6C1BC5010E949E1AC5010E94AF1345
:102A3000CC24C39400E1E02E08E520EB31E0AE01A8
:102A400064E170E0C5010E94B213C4010E947B1AC8
:102A50006BE170E080E090E00E948E1BC03F31F49B
:102A60006AEF70E080E090E00E948E1B2196C931F1
:102A7000D105A1F66EEE72E080E090E00E948E1B20
:102A800020E040E060E0C501DF91CF911F910F9100
:102A9000EF90CF90BF90AF909F908F900C949E1A24
:102AA000CF93DF93EC010E94ED190E94C41A807845
:102AB000803849F40E94921A2FEF4FEF6FEFCE014A
:102AC0000E949E1AFFCFCE010E94FC14249665E05E
:102AD000CE010E9483176DE0CE010E948317DF9123
:102AE000CF910C94D9162F923F924F925F926F9292
:102AF0007F928F929F92AF92BF92CF92DF92EF928E
:102B0000FF920F931F93CF93DF93CDB7DEB7289734
:102B10000FB6F894DEBF0FBECDBF9E838D832A0112
:102B2000603871050CF06DC0403451050CF069C07F
:102B3000CB01A5E0CA9E800D911D1124181619061F
:102B40000CF05FC0EC2DF0E0FC83EB83CA01F8E0F1
:102B5000CF9E800D911D1124181619060CF051C03E
:102B6000A5E02A9FC00111245B0118861F82805AAC
:102B70009D4F9A838983BF81B53041F0E981FA8105
:102B80008F819885E80FF91F149101C010E0320180
:102B900028E0D22E10FF02C0F02E01C0FE2CF11052
:102BA0000BC0E01209C01695DA94AB81BC816A0EA5
:102BB0007B1ED110EFCF19C01501822D8A198C15FB
:102BC00090F74301882D86198C1558F42F2DA401F8
:102BD000B1018D819E810E940213BFEF8B1A9B0A67
:102BE000F1CFEFEF2E1A3E0AE8CF8F81988501963C
:102BF00098878F83AB81BC81AA0EBB1E069709F014
:102C0000BACF28960FB6F894DEBF0FBECDBFDF91C6
:102C1000CF911F910F91FF90EF90DF90CF90BF90D9
:102C2000AF909F908F907F906F905F904F903F906C
:102C30002F9008958F929F92AF92BF92CF92EF9272
:102C40000F93CF93DF93EC01262F6A3099F4FC01A8
:102C5000E85EFB4F208132978081918138E0239F8D
:102C6000800D911D112491838083CC5EDB4F1982EE
:102C700018824BC06D3009F448C0FC01EA5EFB4F7E
:102C8000408151815C018CEEA81A8BEFB80AF501E6
:102C9000608171814E01F8EE8F1AFBEF9F0AF401FB
:102CA000C080E12C01E0CE010E947315F401208167
:102CB000422F50E0F50180819181F6E02F9F800D39
:102CC000911D1124F5019183808335962081222363
:102CD000E1F06AEF64039001659F300D11242058E4
:102CE0003F4F281739078CF4E881F9810190F08172
:102CF000E02D6AE0CE01DF91CF910F91EF90CF9060
:102D0000BF90AF909F908F900994DF91CF910F91DA
:102D1000EF90CF90BF90AF909F908F900895FC015F
:102D2000EC5EFB4F7183608332965183408308953C
:102D300044960C947B1ACF93DF931F92CDB7DEB7E6
:102D400069830E94C41A6981982F962381E09613A3
:102D500080E00F90DF91CF910895CF93DF931F9282
:102D6000CDB7DEB769830E94C41A6981682381E008
:102D700009F080E00F90DF91CF910895E4E6F0E054
:102D80008081877F8083E5E6F0E08081877F808394
:102D900081E08093B90608951092B906E4E6F0E068
:102DA000808188608083E5E6F0E0808188608083B0
:102DB00008951092C60682E090E00E94632481117B
:102DC0000C94BE160895CF92DF92EF92FF921F935C
:102DD000CF93DF939091C706891708F065C067FD10
:102DE00063C0E82FF0E0E05DF74F1491E62FF0E0CC
:102DF000603330F4E050F84FE491CE2FD0E006C0BD
:102E0000EE0FFF1FE050F94FC591D4916E01E12CF8
:102E1000F12C60E074E284EF90E0A70196010E943B
:102E20001F2421503109410951092115310581E043
:102E30004807510570F060E970ED83E090E0A7016C
:102E400096010E941F24215031094109510993E044
:102E500001C091E01130C9F0133031F5809191003B
:102E6000887F892B8093910030939900209398005C
:102E7000D093C506C093C40681E08093C3068091B9
:102E800071008260809371000FC080918100887F03
:102E9000892B809381003093890020938800809152
:102EA0006F00826080936F00DF91CF911F91FF9040
:102EB000EF90DF90CF900895E82FF0E0E05DF74FBE
:102EC000E491E13019F0E33069F0089580916F00EA
:102ED0008D7F80936F002091D106E091D206F09112
:102EE000D30608C01092C3062091CA06E091CB0613
:102EF000F091CC06808190E030E0209530958223DF
:102F0000932380830895CF93DF93C62F8091C706C4
:102F1000823009F46BC0E82FF0E0E05DF74FD49108
:102F2000A82FB0E0A853B94F6C938F5F8093C7066A
:102F300061E08C2F0E94F21CD13091F1D33009F066
:102F400055C010929000109291008091910088607D
:102F500080939100809191008160809391006C2F0B
:102F600070E0FB01E057F74F249130E0220F331F50
:102F70002155374FF901859194919093CC06809318
:102F8000CB06FB01EF58F74F64916093CA066CE3E0
:102F900080E00E94E31680E0DF91CF910C945C17F3
:102FA000109280001092810080918100886080934F
:102FB0008100809181008160809381006C2F70E09E
:102FC000FB01E057F74F249130E0220F331F2155CA
:102FD000374FF901859194919093D3068093D2064F
:102FE000FB01EF58F74F64916093D106DF91CF91C9
:102FF0000895E091BA06F091BB06BF016F5F7F4F65
:103000007093BB066093BA06A4919A2F907F8A2F83
:103010008F70903819F40E945C17EBCF903961F4EF
:10302000AF014E5F5F4F5093BB064093BA06FB0162
:1030300064910E94E316DDCF903E49F48091BC0676
:103040009091BD069093BB068093BA06D2CF903F75
:1030500019F41092C606089597FDCBCFAF014E5FCD
:103060005F4F5093BB064093BA06FB016491262F35
:1030700030E03A2BA091C406B091C5060E944424CA
:103080006C507E4F8F4F9F4F28EE33E040E050E072
:103090000E94FD232093BE063093BF064093C006D6
:1030A0005093C1068091BE069091BF06A091C006C4
:1030B000B091C106892B8A2B8B2B61F481E090E0C3
:1030C000A0E0B0E08093BE069093BF06A093C00638
:1030D000B093C10608958091C306882349F090916A
:1030E000CA06E091CB06F091CC06808189278083C7
:1030F0008091C606882329F18091BE069091BF0673
:10310000A091C006B091C106892B8A2B8B2BC9F0E8
:103110008091BE069091BF06A091C006B091C106F5
:103120000197A109B1098093BE069093BF06A093B1
:10313000C006B093C106892B8A2B8B2B11F40C94FB
:10314000F91708954F925F926F927F928F929F929C
:10315000AF92BF92CF92DF92EF92FF92CF93DF9325
:10316000EB0149015A0181E08093C2062B01612CD9
:10317000712C60E072E18AE790E0A30192010E9465
:103180001F2469017A0181E0C81AD108E108F10819
:10319000C114D10481E0E806F10488F068E478EE17
:1031A00081E090E0A30192010E941F2469017A014D
:1031B00081E0C81AD108E108F10893E001C091E06C
:1031C00080918100887F892B8093810081149104F4
:1031D000A104B10471F0DE01AA0FBB1FA501940187
:1031E0000E94532428EE33E040E050E00E94FD238B
:1031F00003C02FEF3FEFA901D0928900C092880051
:103200002093CD063093CE064093CF065093D00640
:1032100080916F00826080936F00DF91CF91FF906B
:10322000EF90DF90CF90BF90AF909F908F907F9066
:103230006F905F904F9008951F920F920FB60F926C
:1032400011242F933F938F939F93AF93BF93EF934B
:10325000FF938091C206882309F44BC08091CD066C
:103260009091CE06A091CF06B091D006892B8A2BE3
:103270008B2B51F19091D106E091D206F091D306BB
:103280008081892780838091CD069091CE06A09180
:10329000CF06B091D006181619061A061B0694F52B
:1032A0008091CD069091CE06A091CF06B091D00628
:1032B0000197A109B1098093CD069093CE06A09302
:1032C000CF06B093D0061EC01092C20680916F0048
:1032D0008D7F80936F002091D106E091D206F0910E
:1032E000D306808190E030E02095309582239323AF
:1032F00008C09091D106E091D206F091D30680816A
:1033000089278083FF91EF91BF91AF919F918F911A
:103310003F912F910F900FBE0F901F9018951F9205
:103320000F920FB60F9211242F933F934F935F93F9
:103330006F937F938F939F93AF93BF93EF93FF937D
:103340000E946B18FF91EF91BF91AF919F918F9168
:103350007F916F915F914F913F912F910F900FBE91
:103360000F901F9018958EBD00000DB407FEFDCF85
:103370008EB508950895E091D606F091D706808124
:103380009091D406892B8083E091D806F091D906DC
:1033900090818091D5068095892380830895E0915E
:1033A000D806F091D90680819091D506892B80832B
:1033B000E091D606F091D70690818091D406809551
:1033C00089238083E091D806F091D906908180917D
:1033D000D5068095892380830895CF93DF930E943B
:1033E000DF1ACFE3D8E0BE01FE01849122966F5F21
:1033F0007F4FFB016491882319F00E94F21CF3CFE8
:1034000061E086E00E942B1D61E070E080E090E0CA
:103410000E948E1B60E086E00E942B1D6AE070E037
:1034200080E090E00E948E1B61E086E00E942B1DF0
:10343000ECE9F8E0E491F0E0EE0FFF1FE155F74F03
:10344000859194919093D9068093D806EDE7F8E0A2
:10345000E491E093D506E4E9F8E0E491F0E0EE0FC2
:10346000FF1FE155F74F859194919093D706809374
:10347000D606E5E7F8E0E491E093D4068CB58C7FBE
:103480008CBD8DB581608DBD0E94CF19C2E3D8E09F
:10349000F8E0CF33DF0731F0FE0184910E94B319C9
:1034A0002196F6CF0E94BB198091640081608093C1
:1034B0006400809164008260809364008091640065
:1034C00080688093640080916400806480936400CD
:1034D00080916500816080936500DF91CF910895B0
:1034E00083B7817F83BF83B7816083BF889583B7AC
:1034F0008E7F83BF0895FC0120812EBD21E030E046
:10350000FC01E20FF31F40810DB407FEFDCF4EBD5D
:103510002F5F3F4F2115F4E03F0791F70DB407FEF1
:10352000FDCF0895CF93DF93C0E0D4E080E00E9408
:10353000B3192197D9F7DF91CF9108950F931F9376
:10354000CF93DF9300D0CDB7DEB70FEF10E0C80107
:10355000861B9109BC018AE02A8349830E941E1CB4
:103560004981B801641B71098BE00E941E1C2A81ED
:10357000B801621B710989E00F900F90DF91CF9124
:103580001F910F910C941E1C8FB14CB123B150E0D0
:10359000409550954074552733E0559547953A9599
:1035A000E1F730E020953095207133273595279548
:1035B00035952795242B8095807F822B0895CF9376
:1035C000CFB7F8948091DA06811127C0E1EAF8E0DC
:1035D0008491E2E8F8E09491E82FF0E0EE0FFF1F0D
:1035E000E354F74FA591B4918C91892321F461E0C4
:1035F00081E10E942B1D61E081E10E94F21C8CB5EB
:1036000080618CBD8CB580648CBD61E08FE00E94D0
:10361000F21C61E080E10E94F21C8091DA068F5F6B
:103620008093DA06CFBFCF9108951F920F920FB605
:103630000F9211242F933F938F939F93AF93BF9338
:103640008091DC069091DD06A091DE06B091DF0648
:103650003091DB0623E0230F2D3720F40196A11DC6
:10366000B11D05C026E8230F0296A11DB11D2093B0
:10367000DB068093DC069093DD06A093DE06B09314
:10368000DF068091E0069091E106A091E206B091FC
:10369000E3060196A11DB11D8093E0069093E1061B
:1036A000A093E206B093E306BF91AF919F918F91F3
:1036B0003F912F910F900FBE0F901F9018952FB72D
:1036C000F8946091DC067091DD068091DE069091A1
:1036D000DF062FBF08953FB7F8948091E0069091E0
:1036E000E106A091E206B091E30626B5A89B05C0CD
:1036F0002F3F19F00196A11DB11D3FBF6627782FFE
:10370000892F9A2F620F711D811D911D42E0660F56
:10371000771F881F991F4A95D1F708958F929F921E
:10372000AF92BF92CF92DF92EF92FF926B017C013A
:103730000E946B1B4B015C01C114D104E104F10434
:10374000F1F00E94C21D0E946B1B681979098A0959
:103750009B09683E73408105910570F321E0C21A10
:10376000D108E108F10888EE880E83E0981EA11CBC
:10377000B11CC114D104E104F10429F7DDCFFF909D
:10378000EF90DF90CF90BF90AF909F908F90089573
:10379000789484B5826084BD84B5816084BD85B52C
:1037A000826085BD85B5816085BDEEE6F0E08081F3
:1037B00081608083E1E8F0E0108280818260808314
:1037C000808181608083E0E8F0E080818160808397
:1037D000E1E9F0E080818260808380818160808384
:1037E000E0E9F0E0808181608083E1ECF0E08081BD
:1037F0008460808380818260808380818160808317
:10380000E3ECF0E0808181608083E0ECF0E0808197
:1038100082608083E2ECF0E0808181608083EAE76F
:10382000F0E08081846080838081826080838081F9
:103830008160808380818068808308951F93CF9307
:10384000DF93182FEB0161E00E94F21C209711F426
:1038500060E004C0CF3FD10539F461E0812FDF91F2
:10386000CF911F910C942B1DE12FF0E0EE5AF74FF2
:10387000449150E0FA013197EF30F10508F06CC047
:10388000EA5AFF4F0C943E2484B5806884BDC7BDBE
:1038900068C084B5806284BDC8BD63C0809180006B
:1038A000806880938000D0938900C093880059C0BD
:1038B00080918000806280938000D0938B00C093C1
:1038C0008A004FC080918000886080938000D093F0
:1038D0008D00C0938C0045C08091900080688093DB
:1038E0009000D0939900C09398003BC080919000C5
:1038F000806280939000D0939B00C0939A0031C067
:1039000080919000886080939000D0939D00C09338
:103910009C0027C08091C00080688093C000809187
:10392000C0008F7B8093C000C093CF001AC08091ED
:10393000C00080628093C000C093D00012C080910C
:10394000C20088608093C2008091C2008B7F809308
:10395000C200C093D20005C0C038D1050CF07DCFA5
:1039600077CFDF91CF911F91089590E0FC013197BF
:10397000EF30F105B0F5EB59FF4F0C943E248091E8
:1039800080008F7703C0809180008F7D80938000BE
:10399000089580918000877FF9CF84B58F7702C02A
:1039A00084B58F7D84BD0895809190008F7707C086
:1039B000809190008F7D03C080919000877F8093DD
:1039C000900008958091C0008F7703C08091C0005F
:1039D0008F7D8093C00008958091C200877F80937F
:1039E000C2000895CF93DF9390E0FC01EF58F74FAA
:1039F0002491FC01E057F74F8491882349F190E02E
:103A0000880F991FFC01E354F74FA591B49181559C
:103A1000974FFC01C591D4919FB7611108C0F894EC
:103A20008C91209582238C93888182230AC06230F6
:103A300051F4F8948C91322F309583238C938881A4
:103A4000822B888304C0F8948C91822B8C939FBF27
:103A5000DF91CF9108950F931F93CF93DF931F9220
:103A6000CDB7DEB7282F30E0F901EE5AF74F849139
:103A7000F901EF58F74F1491F901E057F74F04910E
:103A80000023C9F0882321F069830E94B51C698155
:103A9000E02FF0E0EE0FFF1FE155F74FA591B49135
:103AA0009FB7F8948C91611103C01095812301C0D8
:103AB000812B8C939FBF0F90DF91CF911F910F911E
:103AC0000895CF92DF92EF92FF920F931F93CF93BF
:103AD000DF937C016A01EB0100E010E00C151D058D
:103AE00071F06991D701ED91FC910190F081E02D89
:103AF000C7010995892B19F00F5F1F4FEFCFC80140
:103B0000DF91CF911F910F91FF90EF90DF90CF90B9
:103B10000895EF92FF920F931F93CF93DF938C0141
:103B20007B01C0E0D0E0F701EC0FFD1F649166233C
:103B300059F0F801A081B181ED91FC91C80109957E
:103B4000892B11F02196EFCFCE01DF91CF911F91FC
:103B50000F91FF90EF9008950E945E2408950E94B7
:103B6000C81B0E94AE1D84EE96E00E94F5210E94C3
:103B70004A11C0E0D0E00E945E112097E1F30E945C
:103B80000000F9CF0895615030F02091F100FC0160
:103B900020830196F8CF289884E68093ED06089557
:103BA0004091E8065091E9062091E6063091E7063B
:103BB00042175307B4F49091E8009570E1F39091A7
:103BC000E80092FD19C08093F1008091E806909181
:103BD000E90601968F739927892B19F48EEF80934C
:103BE000E8008091E8069091E90601969093E90635
:103BF0008093E80681E0089580E00895CF92DF92F7
:103C0000EF92FF920F931F93CF93DF931F92CDB745
:103C1000DEB7082F162FF42E862F880F8E5F99831C
:103C20000E94D01D83E00E94D01DE02EC02E9981FD
:103C3000D92E8C2D8E19811798F4F601F7FE02C04B
:103C4000849101C080810E94D01D082F80E00E94D5
:103C5000D01D8023FFEFCF1ADF0A8111EACF01C008
:103C600081E00F90DF91CF911F910F91FF90EF9026
:103C7000DF90CF9008958091D70081608093D70026
:103C800080EA8093D80089B5806189BD89B582605A
:103C900089BD09B400FEFDCF61E070E080E090E0F6
:103CA0000E948E1B8091D8008F7C80618093D80009
:103CB0008091E000807F8093E0000895CF93DF93B0
:103CC0001F92CDB7DEB71982CE0101960E946F22F6
:103CD0000E94A723BE016F5F7F4F0E94202389812E
:103CE0000F90DF91CF9108952FB7FC012083F894B6
:103CF00067706093E9000895CF93DF931F92CDB76B
:103D0000DEB7682FCE0101960E94741E8091F200EA
:103D100099819FBF0F90DF91CF910895FF920F93EC
:103D20001F93CF93DF9300D0CDB7DEB7F62E8A0175
:103D30009091EC06992311F057FF03C08FEF9FEF8E
:103D40002BC0682FCE0101967A830E94741E809149
:103D5000F20090E0A8017A81801791070CF4AC0181
:103D6000EF2DF72FF40E84E6FE1639F02898809395
:103D7000ED069091F1009193F7CF4115510521F097
:103D80008091F200882321F089818FBFCA0104C08D
:103D90008BE68093E800F8CF0F900F90DF91CF91E2
:103DA0001F910F91FF900895CF93DF931F92CDB78E
:103DB000DEB741E050E0BE016F5F7F4F0E948E1E74
:103DC000019719F4898190E002C08FEF9FEF0F9067
:103DD000DF91CF910895CF93DF931F92CDB7DEB7D8
:103DE000682FCE0101960E94741E9091E800892FE1
:103DF000807295FF04C09091F20080E4891B998144
:103E00009FBF0F90DF91CF9108956F927F928F9215
:103E10009F92AF92BF92CF92DF92EF92FF920F9359
:103E20001F93CF93DF931F92CDB7DEB7782E7B0120
:103E3000C42EB52E8091EC06882369F0042F152F2F
:103E40008AEFD82E872D8072982E9AE3A92E872D7F
:103E50008074882E11C08FEF9FEF57C0872D0E946E
:103E6000EB1E682E81110CC0DA94A9F361E070E0BA
:103E700080E090E00E948E1B0115110579F73BC090
:103E8000282F30E0021713070CF4602E672DCE01A7
:103E900001960E94741E8091E80085FF29C0262D9E
:103EA00030E0021B130B992039F06A948FEF6816EB
:103EB000B1F01092F100F9CFF701862D77FE07C01F
:103EC000815058F094919093F1003196F9CF815040
:103ED00020F091919093F100FACFE20EF31E8091C1
:103EE000E80085FF0FC00115110511F481100AC00B
:103EF00089818FBFC1CF5D9884E68093EE068C2DBB
:103F00009B2D03C0A092E800F3CF0F90DF91CF91DB
:103F10001F910F91FF90EF90DF90CF90BF90AF90E7
:103F20009F908F907F906F9008951092E90010926B
:103F3000E9061092E8069093E7068093E606089556
:103F4000CF92DF92FF920F931F93CF93DF9300D016
:103F5000CDB7DEB7F82E8A016B0101151105B1F05E
:103F6000F601F7FE02C0849101C0808149835A8323
:103F70000E94D01D01501109FFEFCF1ADF0A4981BD
:103F80005A818111EACF8FEF9FEF01C0CA010F90D4
:103F90000F90DF91CF911F910F91FF90DF90CF9005
:103FA0000895BF92CF92DF92EF92FF920F931F93EB
:103FB000CF93DF936C018B01EB013BEFB32E209786
:103FC000C1F07E01C134D1051CF020E4E22EF12CB9
:103FD0008091E80082FFFCCFC8018C1B9D0B6E2DE9
:103FE0008C0D9D1D0E94C31DB092E800CE19DF0903
:103FF000E6CFC801DF91CF911F910F91FF90EF9015
:10400000DF90CF90BF9008951F920F920FB60F923E
:104010001124DF92EF92FF920F931F932F933F9300
:104020004F935F936F937F938F939F93AF93BF93C0
:10403000EF93FF93CF93DF93CDB7DEB76C97DEBFDF
:10404000CDBF1092E9008091E80083FF23C168E0B2
:10405000CE0145960E94C31D82EF8093E8003D8902
:1040600037FF05C08091E80080FFFCCF03C08EEFD2
:104070008093E800832F807609F0F0C02E894F8965
:10408000D88C21110CC0303829F48091EB06809334
:10409000F10002C01092F1001092F100F4C0842FE0
:1040A00090E09D29213049F43111EDC0019709F0CC
:1040B000EAC08091EB068D7F0AC0233059F431119C
:1040C000E2C0019709F0DFC08091EB068260809327
:1040D000EB06D9C0253041F48091E80080FFFCCF89
:1040E00040684093E300CFC0263009F08DC0EB8CD0
:1040F000FC8C22E0D2122CC080E090E00E94951F40
:104100000E945E1E99E08E010F5F1F4FF801292F5C
:1041100011922A95E9F79983DA8291E09E8390EAD9
:1041200098879AEF99872091E8063091E906275FF2
:104130003F4F3C832B838D83C7010E94951F49E02D
:1041400050E0B80180E00E94A01F0E945E1E9BC04C
:10415000C7010E94951F0E94A723BE016B5E7F4F7F
:104160000E944923009719F00CF08DC090C081E0A7
:10417000D8120EC08B8D9C8D089719F481E0809326
:10418000E5068091E50681112FC06DED78E031C024
:10419000E3E0DE127CC08F89882349F1823029F464
:1041A00040E867E08BEF98E01CC0813029F440E8DC
:1041B0006BE08FEE98E015C0833009F068C00E9474
:1041C000A7238E010F5F1F4FB8010E946823F801DB
:1041D00001900020E9F73197E01BF10B40E06E2FD2
:1041E000C8010E94FE1D4DC06BEC78E002C063E088
:1041F00079E06115710509F44AC0FB01449150E072
:1042000080E80E94A01F3FC0273009F440C028303A
:1042100021F481E08093F10036C02930A1F533709C
:10422000B1F5EFECF1E081E021E036E390819923F4
:1042300061F08093E9002093EB0091919093EC0062
:104240003093ED008F5F873089F78EE78093EA0027
:104250001092EA008F898093EC0615C08B8D9C8D9F
:104260000E94951F898D811105C0CE0145960E943F
:104270007A2207C00E94A723BE016B5E7F4F0E9477
:104280008723882321F08EEF8093E80003C081E22A
:104290008093EB006C960FB6F894DEBF0FBECDBFD7
:1042A000DF91CF91FF91EF91BF91AF919F918F914E
:1042B0007F916F915F914F913F912F911F910F913E
:1042C000FF90EF90DF900F900FBE0F901F9018950A
:1042D0008093E9008091F200882319F08AE38093AB
:1042E000E80008951F920F920FB60F9211242F939A
:1042F0003F934F935F936F937F938F939F93AF936E
:10430000BF93CF93EF93FF93C091E1008091E100C1
:10431000837F8093E1008093E100C3FF0FC0109280
:10432000E90081E08093EB001092EC0082E380933F
:10433000ED001092EC0688E08093F000C2FF19C0F7
:1043400083E00E9468218091EE06882339F08091F5
:10435000EE0681508093EE06882389F18091ED0668
:10436000882339F08091ED0681508093ED068823F3
:1043700041F1C4FF10C08091E2008E7E8160809385
:10438000E2008091E1008F7E8093E1008091EA0657
:104390008E7E806111C0C0FF16C08091E2008E7ECB
:1043A00080618093E2008091E1008E7E8093E10045
:1043B0008091EA068E7E81608093EA0604C05D9A51
:1043C000CDCF289AD6CFFF91EF91CF91BF91AF91EA
:1043D0009F918F917F916F915F914F913F912F911D
:1043E0000F900FBE0F901F9018951092EC06109230
:1043F000EB061092EA060E943B1E8091E1008E7E41
:104400008093E1008DE08093E200559A209AEEEFD0
:10441000FFE7859194918B3F9C4D19F481E0809347
:104420003F070895CF93DF931F92CDB7DEB769831F
:10443000DC01ED91FC910280F381E02D41E050E040
:10444000BE016F5F7F4F09950F90DF91CF91089567
:10445000CF93DF93EC018C859D8597FF05C082E0AB
:104460000E94D41E9D878C878C859D85DF91CF917E
:10447000089583E00C946821FC018485958597FD5F
:1044800006C082E00E947C1E90E00196089582E0C2
:104490000E947C1E90E00895FC018485958597FD1F
:1044A00005C02FEF3FEF35872487089582E00C94F5
:1044B000D41ECF93DF93EC018091E001882331F08B
:1044C00083E00E94051F1816190634F081E090E081
:1044D0009B838A8380E090E0DF91CF910895FC0177
:1044E00020812E5F208342E450E067E079E080E89D
:1044F0000C94A01FFC0121818081813A59F4213262
:1045000009F04BC047E050E069ED71E080E00E94A7
:10451000A01F5EC0813209F040C0233289F483813C
:1045200090E0982F88273281832BA0E0B0E0809321
:10453000D5019093D601A093D701B093D8010FC0B5
:10454000203239F467E070E089ED91E00E94D11FDC
:1045500009C0223221F482818093E00103C02D7FC3
:104560002032B1F580913F07811103C0E0E0F8E00F
:1045700002C0EEEFFAE08091D9019091DA01A091AA
:10458000DB01B091DC01803B9440A105B10511F540
:104590008091E00180FF03C01DC080E00895EE3FE0
:1045A0002AE0F20731F0808191819093FF0A809395
:1045B000FE0A87E797E7918380832BE088E190E00C
:1045C0000FB6F894A895809360000FBE209360000A
:1045D00081E0089588E10FB6F8948093600010920E
:1045E00060000FBEA895EE3F8AE0F80739F0809191
:1045F000FE0A9091FF0A91838083EACF1092FF0A0E
:104600001092FE0AE5CF1092F2061092F10688EEA3
:1046100093E0A0E0B0E08093F3069093F406A093BB
:10462000F506B093F60680E192E09093F006809351
:10463000EF068FEF9FEF9093FC068093FB060895A3
:10464000EF92FF920F931F93CF93DF937B01FC01B7
:10465000C281D38100E010E0209781F0E881F981E8
:104660000280F381E02DB701CE01099597FD08C0C6
:10467000080F191F0884D985C02DEECFC80102C0CC
:104680008FEF9FEFDF91CF911F910F91FF90EF90F0
:1046900008950F931F93CF93DF938B01FC01C28189
:1046A000D381209771F0E881F9810480F581E02DB4
:1046B000B801CE010995009731F40884D985C02D41
:1046C000F0CF80E090E0DF91CF911F910F9108959E
:1046D0000F931F93CF93DF938B01FC01C281D38192
:1046E000209771F0E881F9810680F781E02DB8010B
:1046F000CE010995080F111D0884D985C02DF0CF72
:10470000F8011082DF91CF911F910F9108950F93BF
:104710001F93CF93DF938B01FC01C281D38120973C
:1047200071F0E881F9810190F081E02DB801CE01AE
:104730000995811106C00884D985C02DF0CF80E08D
:1047400001C081E0DF91CF911F910F910895809179
:10475000440781110DC082E08093400784E080937C
:104760004107109243071092420781E0809344076B
:1047700080E497E00895991B79E004C0991F96178B
:1047800008F0961B881F7A95C9F78095089587FBD6
:10479000082E062687FD819567FD61950E94BB2343
:1047A0000EF4919507FC81950895AA1BBB1B51E15E
:1047B00007C0AA1FBB1FA617B70710F0A61BB70B91
:1047C000881F991F5A95A9F780959095BC01CD0136
:1047D000089597FB072E16F4009407D077FD09D0B3
:1047E0000E94D52307FC05D03EF4909581959F4FFC
:1047F0000895709561957F4F0895A1E21A2EAA1B26
:10480000BB1BFD010DC0AA1FBB1FEE1FFF1FA21780
:10481000B307E407F50720F0A21BB30BE40BF50B7D
:10482000661F771F881F991F1A9469F76095709506
:10483000809590959B01AC01BD01CF010895052E97
:1048400097FB1EF400940E94362457FD07D00E9467
:10485000FD2307FC03D04EF40C943624509540956C
:10486000309521953F4F4F4F5F4F0895909580951C
:10487000709561957F4F8F4F9F4F0895EE0FFF1FEB
:104880000590F491E02D0994A29FB001B39FC0015F
:10489000A39F700D811D1124911DB29F700D811D6C
:1048A0001124911D08950E944424A59F900DB49F4A
:1048B000900DA49F800D911D1124089581E090E03A
:1048C000F8940C946B24F999FECF92BD81BDF89AAF
:0A48D000992780B50895F894FFCFF2
:1048DA000100000032281E16100C08040201342CB4
:1048EA00241C17120D0A07052101043401000000D7
:1048FA0000A500930083007B00FFFFC401010000B4
:10490A00000000009201010000000000007801018F
:10491A000001000000005E010100010000000058D3
:10492A0001010001000000007B000000FFFF780089
:10493A00B40059013A021B03C003FC03C0031B0362
:10494A003A025901B400FFFF7800F1003A02FC0371
:10495A00BE05080780070807BE05FC033A02F100F6
:10496A00FFFF1003E402BA0293020000E0067D068C
:10497A002006C80575052705DD04970455041704A4
:10498A00DC03A4032705DD0497045504FFFF000098
:10499A0000000000B8072D080000B807FFFF00C19B
:1049AA008081000000FFFFFFFF00E100000000001F
:1049BA0000000204050505060606030202010100BD
:1049CA0000010201010003010101000200000000D0
:1049DA001A16611D00000000AC1D611D00000000D8
:0C49EA00122259223C224C2228223922A1
:00000001FF
